S01900004953505F5553425F5350495F464C4153482E73726563BE
S315200000000000012089010020F9010020FB010020C9
S31520000010FD010020FF010020010200200000000059
S315200000200000000000000000000000000302002085
S31520000030050200200000000007020020090200201F
S315200000400B0200200D0200206D5500208D5500204A
S31520000050130200201502002017020020190200209A
S315200000601B0200201D0200206523002045230020BE
S31520000070230200202502002027020020290200203A
S315200000802B0200202D0200202F020020692E0020A6
S3152000009033020020350200203702002039020020DA
S315200000A03B0200203D0200203F02002041020020AA
S315200000B0430200204502002047020020490200207A
S315200000C04B0200204D0200204F020020510200204A
S315200000D0530200205502002057020020590200201A
S315200000E05B0200205D0200205F02002061020020EA
S315200000F063020020650200206702002069020020BA
S315200001006B0200206D0200206F0200207102002089
S315200001107302002075020020770200207902002059
S315200001207B0200207D0200207F0200208102002029
S3152000013083020020850200208702002089020020F9
S315200001408B0200208D0200208F02002091020020C9
S315200001509302002095020020970200209902002099
S315200001609B0200209D0200209F020020A102002069
S31520000170A3020020A5020020A7020020A902002039
S31520000180AB020020AD02002049488047494800289C
S315200001900BD1494849494A4A884206D091421CBF58
S315200001A050F8043B41F8043BF8D146484649474AB3
S315200001B0884206D091421CBF50F8043B41F8043BCC
S315200001C0F8D143484349444A914218BF41F8040BA9
S315200001D0FAD100000000000000000000000000002E
S315200001E0DFF8F8000FF2030E00474FF000004FF043
S315200001F00001DFF8ECF0FEE7FEE7FEE7FEE7FEE7AC
S31520000200FEE7FEE7FEE7FEE7FEE7FEE7FEE7FEE7A0
S31520000210FEE7FEE7FEE7FEE7FEE7FEE7FEE7FEE790
S31520000220FEE7FEE7FEE7FEE7FEE7FEE7FEE7FEE780
S31520000230FEE7FEE7FEE7FEE7FEE7FEE7FEE7FEE770
S31520000240FEE7FEE7FEE7FEE7FEE7FEE7FEE7FEE760
S31520000250FEE7FEE7FEE7FEE7FEE7FEE7FEE7FEE750
S31520000260FEE7FEE7FEE7FEE7FEE7FEE7FEE7FEE740
S31520000270FEE7FEE7FEE7FEE7FEE7FEE7FEE7FEE730
S31520000280FEE7FEE7FEE7FEE7FEE7FEE7FEE7FEE720
S31520000290FEE7FEE7FEE7FEE7FEE7FEE7FEE7FEE710
S315200002A0FEE7FEE7FEE7FEE7FEE7FEE7FEE770472E
S315200002B0295D002000000000000000200000002032
S315200002C098C1002098C1002098C10020D0C60020E7
S315200002D000000000D0C60020E8CA0020A55E00204D
S315200002E03909002000000000000000000000000086
S315200002F04CF2D063C2F200031A780AB901201870B2
S31520000300704700BF4CF29810C2F2000008B503688F
S315200003102BB140F20003C0F2000303B1984708BD99
S3152000032070B483B000236D4600E0634600F00F0CE6
S31520000330BCF1090FD4BF0CF1300C0CF1370C0009BD
S3152000034005F803C00CBF0024012403F1010CBCF105
S31520000350070FCCBF002404F00104002CE5D1101EA9
S3152000036018BF012090B12046EC180346013314F83B
S3152000037001696345ACBF002501259A4294BF00253B
S3152000038005F001050E541846002DEFD103B070BCC0
S31520000390704700BF704700BFF0B51029A1B00F46C7
S315200003A006465FD8002950D0002417F0010F6D466D
S315200003B038D04BF28852335D8021C2F20002684663
S315200003C005F060FE4CF66C100134C2F2000069465E
S315200003D000F0ACFFA74238D9012C02D914F00F0F38
S315200003E035D04BF28852335D8021C2F20002684636
S315200003F005F048FE4CF66C10C2F200000134694646
S3152000040000F094FF012CD4D914F00F0FD1D14CF663
S315200004106C104BF66871C2F20000C2F2000100F0C7
S3152000042085FFC6E74BF288528021C2F2000233785C
S31520000430684605F027FE4CF66C10C2F200006946AD
S31520000440012400F073FFA742B3D821B0F0BD4CF6CB
S315200004506C104BF66871C2F20000C2F2000100F087
S3152000046065FFBEE74CF66C104BF66871C2F20000D1
S31520000470C2F2000100F05AFF96E700BF2DE9F045D1
S315200004800746C1B00C4600293FD000F1FF380023B3
S3152000049011F4807F46466D463AD14FF48072B718E4
S315200004A03046BE18FF2C694603EB020A23D905F015
S315200004B043F968464FF48071FFF76EFFB4F58074F8
S315200004C069464FF4807238461FD005F035F96846E4
S315200004D04FF48071FFF760FFB4F5807415D04FF4A8
S315200004E08072B7180AF580733046BE18FF2C69460D
S315200004F003EB020ADBD808EB03006946224605F027
S315200005001BF968462146FFF747FF41B0BDE8F08555
S3152000051069464FF48072404605F00EF968464FF45E
S315200005208071FFF739FFB4F5807407F1FF0618BF15
S315200005304FF48073B1D1E8E72DE9F04FADF5806D2A
S3152000054083B00F4600297AD046F24C4A00F1FF3993
S31520000550C0F2010A4FF000084FF0204540F2FF3B61
S3152000056002AC5F4594BF3E464FF4806608EB090017
S315200005702146324605F0E0F8711E012220782B46EE
S315200005801140964203F8010B13D929B1A05C01331F
S31520000590A854022296420CD914F802E0511C05F800
S315200005A002E014F801C04A1C0233964205F801C045
S315200005B0F2D8574504D0BF1B41D0B0441D46D0E7E2
S315200005C04CF66C104BF29051C2F20001C2F20000C0
S315200005D0019300F0ABFE80212046FFF7DDFE4CF6AE
S315200005E06C104BF66871C2F20000C2F2000100F0F6
S315200005F09DFE4CF66C104BF66871C2F20000C2F2FA
S31520000600000100F093FE4CF66C104BF2C851C2F27A
S315200006100000C2F2000100F089FE019B8021981B98
S31520000620FFF7BAFE4CF66C104BF66871C2F200006A
S31520000630C2F2000100F07AFEBF1B019BBDD14CF631
S315200006406C104BF2FC51C2F20000C2F2000100F025
S315200006506DFE03B00DF5806DBDE8F08F10B54CF63C
S315200006606C1082B04BF2146102AC0023C2F200007F
S31520000670C2F2000104F8013D00F058FE4CF66C1061
S315200006800122C2F20000214600F016FF10F0FF0FF3
S31520000690F4D002B010BD00BF10B54CF66C1082B07D
S315200006A04BF234610023C2F20000C2F2000102AC18
S315200006B004F8013D00F03AFE4CF66C104BF27C61DA
S315200006C0C2F20000C2F2000100F030FE4CF66C10BF
S315200006D04BF29C61C2F20000C2F2000100F026FE3D
S315200006E04CF66C104BF2C061C2F20000C2F200015F
S315200006F000F01CFE4CF66C104BF2E461C2F20000D6
S31520000700C2F2000100F012FE4CF66C104BF204719E
S31520000710C2F20000C2F2000100F008FE4CF66C1096
S315200007204BF22071C2F20000C2F2000100F0FEFD81
S315200007304CF66C104BF22C71C2F20000C2F2000192
S3152000074000F0F4FD4CF66C104BF23871C2F200004A
S31520000750C2F2000100F0EAFD4CF66C104BF2587123
S31520000760C2F20000C2F2000100F0E0FD4CF66C106F
S315200007700122C2F20000214600F09EFE10F0FF0F7B
S31520000780F4D09DF80700A0F13101CAB2062A9EBF17
S315200007904CF29C12C2F20002107001D802B010BDB9
S315200007A04CF66C104BF27071C2F20000C2F20001DE
S315200007B000F0BCFDF2E700BF08B505F0B5FA4CF62F
S315200007C06C104BF29871C2F20000C2F2000100F0E8
S315200007D0ADFD46F24C41C0F201014FF48010FFF707
S315200007E0ABFE4CF66C104BF2B071C2F20000C2F2B6
S315200007F0000100F09BFD4CF66C104BF2D471C2F256
S315200008000000C2F2000100F091FD4CF66C10C2F21D
S315200008100000012100F0DEFE4FF02040036883F344
S31520000820088848F20801C4F20301012204200A6064
S3152000083003689847FEE700BF70B54CF66C148EB07F
S31520000840C2F200044BF61C010546C2F20001204606
S3152000085001AE00F06BFD314608222846FFF760FD09
S3152000086031460246204600F0FBFC4CF29C13C2F2B5
S31520000870000300221A725D600EB070BD00B5002321
S3152000088083B0E0288DF806308DF8073034D0E12883
S3152000089001D003B000BD4CF66C10C2F2000003225A
S315200008A04FF4E13102F07AF84CF66C104BF6BC01AD
S315200008B0C2F20000C2F2000100F038FD042005F06B
S315200008C08DF804F00BFF0DF107000DF1060104F081
S315200008D065FF9DF80700EF2803D19DF806104029F3
S315200008E01FD04CF66C104BF67801C2F20000C2F213
S315200008F0000100F01BFDCCE74CF66C10C2F20000A4
S3152000090003224FF4E13102F049F84CF66C104BF615
S315200009103001C2F20000C2F2000100F007FD0520FE
S31520000920CDE74CF66C104BF69801C2F20000C2F2ED
S31520000930000100F0FBFCACE72DE9F04F4CF2D4654A
S31520000940C2F2000500242E4695B006F8044B1094FA
S315200009508DF84F408DF84E4005F0E6F948F2000339
S31520000960C4F203034CF66C100322DC66C2F20000CC
S315200009704FF4E13102F012F84CF66C104BF2D03104
S31520000980C2F20001C2F2000000F0D0FC05F582722E
S315200009902146631C345511555C1C0027B4F5807F15
S315200009A0F354D754F5D148F20001C4F20301D1F82B
S315200009B098204CF66C104BF6F801C2F20000C2F2F9
S315200009C000010DF138080E920F9700F0AFFC40465B
S315200009D00821FFF7E1FC4CF66C104BF66871C2F269
S315200009E00000C2F2000100F0A1FC4CF66C104BF6A0
S315200009F02811C2F20000C2F2000100F097FC4CF66A
S31520000A006C104BF66011C2F20000C2F2000100F039
S31520000A108DFC4CF66C163C46C2F200064CF66C1069
S31520000A204BF69411C2F20000C2F2000100F07EFCE7
S31520000A30AFB931680B7D13F0010F04BF44F6403384
S31520000A40C0F24C0305D0D3E00F7D17F0010F40F024
S31520000A50CF80013B0CBF00270127002FF4D10134A2
S31520000A600A2CDBD1002F00F025834CF66C104BF6B8
S31520000A70B811C2F20000C2F2000100F057FC0127B3
S31520000A80042004F0ABFF04F029FE4FF4E00004F04C
S31520000A90C1FD0DF14F000DF14E0104F07FFE9DF8D2
S31520000AA04F40EF2C04D19DF84E60402E00F0198364
S31520000AB0109A4CF66C104BF67801531CC2F20000CB
S31520000AC0C2F20001109300F031FC40F67D00C2F224
S31520000AD0000013AE04F02CF9304603F0BBFF0446A9
S31520000AE0002840F0AC814CF66C104BF6D811C2F2BF
S31520000AF00001C2F2000000F019FC30460221FFF787
S31520000B004BFC4CF66C104BF66871C2F20000C2F238
S31520000B10000100F00BFC0DF1440B40F27C10022288
S31520000B20C0F22000594604F007FE4CF66C104BF636
S31520000B305021C2F20001C2F2000000F0F7FB0221B0
S31520000B405846FFF729FC4CF66C104BF66871C2F23A
S31520000B500000C2F2000100F0E9FB40F2060002228A
S31520000B60C0F27000314604F09BFE40F204000222DF
S31520000B70C0F27000594604F093FE9DF84C909DF803
S31520000B8044A0D14500F0A1820126002F00F06F81FC
S31520000B904CF29C1448F200064EF60C5A40F2040918
S31520000BA0C2F20004C4F20306CEF2000AC0F2FA59D9
S31520000BB012AFFFF771FD40F67D00C2F2000004F08F
S31520000BC0B7F82378313B062B00F2108101A252F8A8
S31520000BD023F000BFCF0D0020B70D0020750D00209B
S31520000BE0330D0020F50B0020070E0020B30B00204C
S31520000BF0012734E74CF66C104BF6E441C2F20000B4
S31520000C00C2F2000100F092FB012341F2BD1140F631
S31520000C10390223724FF40013C2F20001C2F200021D
S31520000C200220C5F8043203F033FF217A0029FCD1D3
S31520000C3040F67D00C2F2000004F07AF8384603F050
S31520000C4009FF8346002840F0E1804CF66C104BF6F5
S31520000C507431C2F20001C2F2000000F067FB384690
S31520000C600221FFF799FB4CF66C104BF66871C2F225
S31520000C700000C2F2000100F059FB40F202000222FD
S31520000C803946C0F2700004F00BFED6F898304CF6C8
S31520000C906C104BF6F801C2F20001C2F200000F936D
S31520000CA000F044FB40460821FFF776FB4CF66C101B
S31520000CB04BF66871C2F20000C2F2000100F036FB6A
S31520000CC04CF66C104BF6A431C2F20000C2F20001C1
S31520000CD000F02CFB0E9A4CF66C10C6F89820D6F82D
S31520000CE098300322C2F200004FF4E1310F9301F055
S31520000CF055FE4CF66C104BF61451C2F20001C2F2AE
S31520000D00000000F013FB40460821FFF745FB4CF698
S31520000D106C104BF66871C2F20001C2F2000000F0BE
S31520000D2005FB042004F05AFE04F0D8FCFFF796FCDD
S31520000D303FE74CF66C104BF6B841C2F20000C2F207
S31520000D40000100F0F3FA012341F2BD1140F6390209
S31520000D504FF4001C1846C2F20001C2F20002C5F888
S31520000D6004C2237203F094FE207A0028FCD1FFF7F8
S31520000D7075FC1EE74CF66C104BF68841C2F200005B
S31520000D80C2F2000100F0D2FA012341F2BD1140F671
S31520000D90390223724FF40013C2F20001C2F200029C
S31520000DA00020C5F8043203F073FE227A002AFCD113
S31520000DB0FFF754FCFDE64CF66C10C2F20000012150
S31520000DC000F008FCFFF7F8FCFFF748FCF1E64CF6CC
S31520000DD06C100121C2F2000000F0FCFB4FF4001061
S31520000DE06421FFF74BFBFFF739FCE2E64CF66C106B
S31520000DF04BF64851C2F20000C2F2000100F096FA0A
S31520000E00FFF72CFCD5E6CAF80090D2E64CF66C101B
S31520000E104BF60421C2F20000C2F2000100F086FA6D
S31520000E20BBF17F0F7FF429AF4CF66C104BF62C21CB
S31520000E30C2F20000C2F2000100F078FA1DE74CF67B
S31520000E406C104BF60421C2F20000C2F2000100F041
S31520000E506DFA7F2C7FF45FAE4CF66C104BF62C218E
S31520000E60C2F20000C2F2000100F060FA53E616B9A1
S31520000E70FFF7A2FCFEE740F67D00C2F2000003F079
S31520000E8057FF4CF66C104BF6A021C2F20000C2F2BE
S31520000E9000014CF29C1400F049FAC2F2000441F21F
S31520000EA0BD1140F6390238464FF40017C2F2000150
S31520000EB0C2F200022672C5F8047203F0E9FD207A18
S31520000EC04CF29C16C2F200060028F8D17068002861
S31520000ED040F012814CF66C104BF6B821C2F200009D
S31520000EE0C2F2000100F022FA4CF66C104BF6EC210F
S31520000EF0C2F20001C2F2000000F018FA40F67D00AE
S31520000F00C2F2000003F014FF012341F2BD1140F6A6
S31520000F10390233724FF400161846C2F20001C2F2AB
S31520000F200002C5F8046203F0B3FD217A4CF29C1648
S31520000F30C2F200060029F8D17068002840F0088126
S31520000F404CF66C104BF61831C2F20001C2F20000CA
S31520000F5000F0ECF940F67D00C2F2000003F0E8FE56
S31520000F604FF4001741F2BD1140F639020123C2F2B7
S31520000F700001C2F2000202203372C5F8047203F0A7
S31520000F8087FD257A4CF29C13C2F20003002DF8D17E
S31520000F905868002840F0EB804CF66C104BF6483130
S31520000FA0C2F20001C2F2000000F0C0F940F67D0056
S31520000FB0C2F2000012AD03F0BBFE284603F04AFD44
S31520000FC00446002840F0E2804CF66C104BF6743153
S31520000FD0C2F20001C2F2000000F0A8F92846022160
S31520000FE0FFF7DAF94CF66C104BF66871C2F2000086
S31520000FF0C2F2000100F09AF940F2020048F2000421
S315200010000222C4F203042946C0F2700004F048FC10
S31520001010D4F898704CF66C104BF6F801C2F2000129
S31520001020C2F200000F9700F081F940460821FFF731
S31520001030B3F94CF66C104BF66871C2F20000C2F29E
S31520001040000100F073F94CF66C104BF6A431C2F295
S315200010500000C2F2000100F069F90E9A4CF66C10FD
S31520001060C4F89820D4F898600322C2F200004FF406
S31520001070E1310F9601F092FC4CF66C104BF6D8310C
S31520001080C2F20001C2F2000000F050F940460821E9
S31520001090FFF782F94CF66C104BF66871C2F200012C
S315200010A0C2F2000000F042F9042004F097FC04F09C
S315200010B015FBDDE64CF66C104BF69811C2F20000DB
S315200010C0C2F2000100F032F9DAE44CF66C104BF66D
S315200010D08021C2F20000C2F2000100F027F90026AA
S315200010E053E54CF66C104BF69801C2F20000C2F2A2
S315200010F0000100F01BF9E8E401AC21460222FFF7CB
S315200011000FF94BF65C4105464CF66C10C2F2000016
S31520001110C2F2000100F00AF94CF66C10C2F200008F
S3152000112021462A4600F09CF84CF66C104BF234719E
S31520001130C2F20000C2F2000100F0F8F84EF60C519F
S3152000114040F20400CEF20001C0F2FA5008608FE6A9
S3152000115001AC21460222FFF7E3F84BF6344105465F
S315200011604CF66C10C2F20000C2F20001D2E701ACCC
S3152000117021460222FFF7D4F84BF60C4105464CF6E1
S315200011806C10C2F20000C2F20001C3E74CF66C10EC
S315200011904BF60421C2F20000C2F2000100F0C6F8AC
S315200011A07F2C7FF429AF4CF66C104BF62C21C2F223
S315200011B00000C2F2000100F0B9F81DE770B54CF24C
S315200011C0D464C2F20004D4F8043204F582750646CB
S315200011D02946581E4FF4807204F0AEFAD4F8043231
S315200011E0B3F5001F21D048F21F5EC5F2EB1E8EFB21
S315200011F0031CD917C1EB6C304FF4C84101FB1032E8
S315200012005AB94CF66C104BF69411C2F20000C2F299
S31520001210000100F08BF8D4F8043203F58073C4F88B
S31520001220043235604FF4807070BD4CF66C104BF66E
S315200012306451C2F20001C2F2000000F077F828469D
S315200012408021FFF7A9F84CF66C104BF66871C2F2B4
S315200012500000C2F2000100F069F8D4F80432C2E7B7
S315200012604CF6AC13C2F2000398422DE9F00506D0E5
S315200012704CF66C1CC2F2000C604500D000BE002962
S315200012804ED002B900BE984208D04CF66C13C2F27A
S315200012900003984202D0BDE8F00570470B1E18BF28
S315200012A00123002A0CBF002303F00103002BF2D0F8
S315200012B090F80D80D0F800A000259AF814C048EACE
S315200012C00C081CF0200F80F80D8023D00F2A24D97B
S315200012D010274E5D0468012307F1FF3C26700CEAB7
S315200012E0030605EB030C4D19BB4211D236B1EE5C59
S315200012F00223BB4226700CF1010C09D2EE5C0133AD
S315200013002670EE5C0133BB4226700CF1020CF5D33D
S315200013106546D21A002AD0D1BDE71AB11746D8E7BA
S3152000132000BEAEE71346D21AF4E700BF2DE9F0055A
S315200013304CF6AC13C2F20003984282B006D04CF6AB
S315200013406C12C2F20002904200D000BE002940D0AA
S31520001350984212D04CF66C13C2F2000398420CD07D
S3152000136041F288300190019B5A1E01920199002971
S31520001370F9D102B0BDE8F00570470029F0D00D780C
S31520001380002DEDD0427B04684FF0000C237D1A43DC
S3152000139013F0200FFAD0427325B96346002DDFD013
S315200013A09C46F3E7D0F800A0002601EB0C08013696
S315200013B08AF8005018F8065006EB0C032F1E18BFAB
S315200013C001270F2E8CBF002707F00107002FE5D03D
S315200013D0EDE700BEBCE700BF4CF6AC13C2F200033B
S315200013E098422DE9F00506D04CF66C1CC2F2000C92
S315200013F0604500D000BE00293DD01AB900BEBDE828
S31520001400F00570470029FAD0984205D04CF66C13A7
S31520001410C2F200039842F2D190F804A04FF00108DE
S315200014200AF01F0708FA07F705684FFA8AF605F14A
S31520001430040C2CF07F440CF0704303F1007A7609FB
S3152000144024F470054EF2001342F285344261CEF246
S3152000145000030AF1040CC2F200046D0106F1600AD1
S3152000146000228261016143F82A7044624CF80580AB
S3152000147043F82670C3E700BEBFE700BF4CF6AC13A7
S31520001480C2F20003984208D04CF66C11C2F2000159
S31520001490884202D000BE002070470368417B1B7D36
S315200014A0426943EA010C80F80DC012B9C3F38010DB
S315200014B070470020704700BF4CF6AC13C2F2000301
S315200014C0984270B406D04CF66C1CC2F2000C6045F3
S315200014D000D000BE002935D002B900BE984209D0FE
S315200014E04CF66C13C2F20003984203D00023184630
S315200014F070BC70470B1E18BF0123002A0CBF0023A7
S3152000150003F00103002BF1D0046890F80DC0237D71
S3152000151043EA0C0C13F0010F80F80DC0E6D000232F
S315200015202578CD540468467B94F814C001334CEAE0
S3152000153006069A4294BF00250CF001054673002D3D
S31520001540EED1D4E700BEC7E74CF6AC13C2F20003D7
S31520001550984230B406D04CF66C12C2F20002904289
S3152000156000D000BE4FF6FF7C614530D0984207D0B0
S315200015704CF66C13C2F20003984201D030BC70477F
S315200015804FF6FF729142F9D090F804C001240CF076
S315200015901F0294404FFA8CF34FEA531C4EF200136D
S315200015A00268CEF200030CF1600543F82540157958
S315200015B001F00F0045EA0000107192F8240040EA7D
S315200015C01111C9B282F8241043F82C40D6E700BE88
S315200015D0CCE700BF4CF6AC13C2F20003984210B41D
S315200015E008D04CF66C12C2F20002904202D000BE25
S315200015F010BC7047036801F00F041A7981F47F4C00
S3152000160022EA04021A7193F8242042EA1C2283F863
S31520001610242002794FF0010C02F01F000CFA00F092
S3152000162052B252094EF20013CEF2000302F1600CC0
S315200016300F2943F82C00DBD1203243F82200D7E7CC
S315200016404CF6AC13C2F20003984230B406D04CF6E6
S315200016506C1CC2F2000C604500D000BE00293ED0B2
S31520001660C02A00D900BE984207D04CF66C13C2F2AD
S315200016700003984201D030BC70470B1E18BF0123CF
S31520001680C02A8CBF002303F00103002BF3D005688A
S31520001690016295F808C001240CF03F031A432A7210
S315200016A0027905F1040C02F01F0014FA00F02CF068
S315200016B07F4351B223F4700549094EF200130CF012
S315200016C0704CCEF200036A010CF1007C01F160053A
S315200016D043F825004CF8024043F82100CBE700BE32
S315200016E0BEE700BF4CF6AC13C2F20003984206D008
S315200016F04CF66C12C2F20002904200D000BE0529C0
S3152000170000D900BE98420CD04CF66C1CC2F2000CDC
S31520001710604514BF00230123052998BF43F0010328
S315200017203BB1052904D8DFE801F00C1B2A302A0535
S3152000173000BE7047036893F810C04CF04000187440
S3152000174070470368103323F07F4C03F0704101F19A
S3152000175000732CF470021033500100211950704789
S315200017600268103222F07F4C02F070432CF4700095
S3152000177003F100714201103101208850704703683F
S31520001780187C00F0F9011974704701680A7C42F050
S31520001790200C81F810C070474CF6AC13C2F200033F
S315200017A09842F0B406D04CF66C12C2F20002904277
S315200017B000D000BE002930D0984207D04CF66C13DA
S315200017C0C2F20003984201D0F0BC70470029FBD03A
S315200017D090F804C001260CF01F0516FA05F50368DB
S315200017E04FFA8CF41F1D27F07F4307F070426409DF
S315200017F023F4700702F100724EF20013CEF20003BA
S315200018004FEA471C083204F1600743F82750C161AC
S3152000181042F80C6043F82450D6E700BECCE700BF60
S315200018204CF6AC13C2F2000398422DE9F00106D023
S315200018304CF66C12C2F20002904200D000BE002983
S3152000184034D0984208D04CF66C13C2F2000398426A
S3152000185002D0BDE8F00170470029FAD090F804C004
S3152000186001270CF01F0617FA06F602684FFA8CF5C8
S31520001870141D04F0704324F07F4828F470046D0989
S3152000188003F100724EF20013CEF200034FEA441C1D
S315200018900432002405F160084461416243F828605F
S315200018A0046142F80C7043F82560D2E700BEC8E711
S315200018B04CF6AC13C2F200039842F0B406D04CF6B4
S315200018C06C12C2F20002904200D000BE002930D035
S315200018D0984207D04CF66C13C2F20003984201D00E
S315200018E0F0BC70470029FBD090F804C001260CF00C
S315200018F01F0516FA05F503684FFA8CF41F1D27F00D
S315200019007F4307F07042640923F4700702F10072E6
S315200019104EF20013CEF200034FEA471C0C3204F1BC
S31520001920600743F82750816242F80C6043F8245040
S31520001930D6E700BECCE700BF4CF6AC13C2F20003DC
S31520001940984210B406D04CF66C1CC2F2000C6045CE
S3152000195000D000BE002942D002B900BE984208D06D
S315200019604CF66C13C2F20003984202D0002010BC41
S3152000197070470B1E18BF0123002A0CBF002303F05B
S315200019800103002BF2D00368447B93F814C04CEA81
S3152000199004041CF0200F4473E8D00F2A88BF1022BD
S315200019A0501E91F800C000F001040120824283F805
S315200019B000C0DCD934B191F801C00220824283F8FC
S315200019C000C0D4D911F800C0013083F800C011F846
S315200019D000C00130824283F800C0F3D8C7E700BEBA
S315200019E0BAE700BF4CF6AC13C2F20003984208D007
S315200019F04CF66C11C2F20001884202D000BEFF20D4
S31520001A0070470268437B117D002241EA030C427332
S31520001A100CF09E00704700BF4CF6AC13C2F20003D8
S31520001A20984208D04CF66C11C2F20001884202D0CE
S31520001A3000BEFF2070470268107E70474CF6AC133C
S31520001A40C2F20003984208D04CF66C11C2F2000193
S31520001A50884202D000BE002070470368417B93F87D
S31520001A6014C04CEA010242730CF06000704700BFBC
S31520001A704CF6AC13C2F20003984207D04CF66C1118
S31520001A80C2F20001884201D000BE704702680C32C3
S31520001A9002F0704022F07F4C00F100732CF47001AC
S31520001AA018334A0101209850704700BF4CF6AC13FA
S31520001AB0C2F20003984207D04CF66C11C2F2000124
S31520001AC0884201D000BE704702680C3202F0704096
S31520001AD022F07F4C00F100732CF4700118334A0178
S31520001AE000209850704700BF4CF6AC13C2F200039A
S31520001AF09842F0B406D04CF66C12C2F20002904224
S31520001B0000D000BE002930D0984207D04CF66C1386
S31520001B10C2F20003984201D0F0BC70470029FBD0E6
S31520001B2090F804C001260CF01F0516FA05F5076883
S31520001B304FFA8CF4243727F07F4307F0704264096C
S31520001B4023F4700702F100724EF20013CEF2000366
S31520001B504FEA471C083204F1600743F827504163D7
S31520001B6042F80C6043F82450D6E700BECCE700BF0D
S31520001B704CF6AC13C2F200039842F0B406D04CF6F1
S31520001B806C12C2F20002904200D000BE002930D072
S31520001B90984207D04CF66C13C2F20003984201D04B
S31520001BA0F0BC70470029FBD090F804C001260CF049
S31520001BB01F0516FA05F507684FFA8CF4243727F027
S31520001BC07F4307F07042640923F4700702F1007224
S31520001BD04EF20013CEF200034FEA471C0C3204F1FA
S31520001BE0600743F82750816342F80C6043F824507D
S31520001BF0D6E700BECCE700BF4CF6AC13C2F200031A
S31520001C009842F0B406D04CF66C12C2F20002904212
S31520001C1000D000BE002930D0984207D04CF66C1375
S31520001C20C2F20003984201D0F0BC70470029FBD0D5
S31520001C3090F804C001260CF01F0516FA05F5076872
S31520001C404FFA8CF4243727F07F4307F0704264095B
S31520001C5023F4700702F100724EF20013CEF2000355
S31520001C604FEA471C103204F1600743F82750C1633E
S31520001C7042F80C6043F82450D6E700BECCE700BFFC
S31520001C804CF6AC13C2F200039842F0B406D04CF6E0
S31520001C906C12C2F20002904200D000BE00292ED063
S31520001CA0984207D04CF66C13C2F20003984201D03A
S31520001CB0F0BC70470029FBD00279012602F01F05EF
S31520001CC016FA05F5076854B2243707F0704C27F04A
S31520001CD07F4323F4700764090CF100724EF200135F
S31520001CE0CEF200034FEA471C043204F1600743F8A2
S31520001CF02750016342F80C6043F82450D8E700BE11
S31520001D00CEE700BF4CF6AC13C2F200039842F0B403
S31520001D1006D04CF66C12C2F20002904200D000BEF1
S31520001D2000292DD0984207D04CF66C13C2F200033E
S31520001D30984201D0F0BC70470029FBD002790125DA
S31520001D4002F01F0415FA04F406684FFA82FC2436C2
S31520001D5026F07F4323F470074FEA5C1C4EF20013F3
S31520001D6006F07046CEF200037A0106F100760CF1F9
S31520001D70600743F82740C162B55043F82C40D9E7A5
S31520001D8000BECFE74CF6AC13C2F20003984207D050
S31520001D904CF66C11C2F20001884201D000BE704799
S31520001DA00268383202F0704022F07F4C00F1007356
S31520001DB02CF470010C334A0101209850704700BF63
S31520001DC04CF6AC13C2F20003984207D04CF66C11C5
S31520001DD0C2F20001884201D000BE70470268383244
S31520001DE002F0704022F07F4C00F100732CF4700159
S31520001DF00C334A0100209850704700BF4CF6AC13B4
S31520001E00C2F20003984206D04CF66C12C2F20002CF
S31520001E10904200D000BE012900D900BE984206D0CB
S31520001E204CF66C13C2F20003984200D07047012989
S31520001E30FCD871B10168343121F07F4C2CF470004C
S31520001E4001F0704202F1007C430101214CF803109D
S31520001E50ECE70268343222F07F4020F4700302F06F
S31520001E60704C0CF100705B01C15070474CF6AC13FE
S31520001E70C2F20003984206D04CF66C12C2F200025F
S31520001E80904200D000BE012900D900BE984206D05B
S31520001E904CF66C13C2F20003984200D07047012919
S31520001EA0FCD871B10368343303F0704023F07F4CC3
S31520001EB000F100712CF470020B1D50010121195004
S31520001EC0ECE70268343202F0704322F07F4C03F1D3
S31520001ED000702CF47002031D50011950704700BF8A
S31520001EE04CF6AC13C2F20003984206D04CF66C12A4
S31520001EF0C2F20002904200D000BE072900D900BEDF
S31520001F00984206D04CF66C13C2F20003984200D0D9
S31520001F10704707299CBF036883F84410704700BFA9
S31520001F204CF6AC13C2F20003984207D04CF66C1163
S31520001F30C2F20001884201D000BE704703683833E0
S31520001F4003F0704223F07F4C02F100702CF47001F4
S31520001F50031D4A0101209850704700BF4CF6AC1370
S31520001F60C2F20003984207D04CF66C11C2F200016F
S31520001F70884201D000BE70470368383303F07042B0
S31520001F8023F07F4C02F100702CF47001031D4A01EE
S31520001F9000209850704700BF4CF6AC13C2F20003E5
S31520001FA0984207D04CF66C11C2F20001884201D04B
S31520001FB000BE70470268383202F0704022F07F4C33
S31520001FC000F100732CF4700108334A010120985067
S31520001FD0704700BF4CF6AC13C2F20003984207D0FC
S31520001FE04CF66C11C2F20001884201D000BE704747
S31520001FF00268383202F0704022F07F4C00F1007304
S315200020002CF4700108334A0100209850704700BF15
S315200020104CF6AC13C2F20003984207D04CF66C1271
S31520002020C2F20002904201D000BE7047006800F163
S31520002030300202F0704322F07F4C03F100732CF43F
S31520002040700280F84C1018335201012199507047C4
S315200020504CF6AC13C2F20003984207D04CF66C1132
S31520002060C2F20001884201D000BE704702683032B9
S3152000207002F0704022F07F4C00F100732CF47001C6
S3152000208018334A0100209850704700BF4CF6AC1315
S31520002090C2F20003984207D04CF66C12C2F200023C
S315200020A0904201D000BE7047006800F1300202F075
S315200020B0704322F07F4C03F100732CF4700280F8F9
S315200020C04810143352010121995070474CF6AC1335
S315200020D0C2F20003984207D04CF66C11C2F20001FE
S315200020E0884201D000BE70470268303202F070404C
S315200020F022F07F4C00F100732CF4700114334A0156
S3152000210000209850704700BF4CF6AC13C2F2000373
S31520002110984207D04CF66C12C2F20002904201D0CF
S3152000212000BE7047036883F8501070474CF6AC1316
S31520002130C2F20003984206D04CF66C12C2F200029C
S31520002140904200D000BE012900D900BE984206D098
S315200021504CF66C13C2F20003984200D07047012956
S31520002160FCD871B10268083222F07F4C02F070432D
S315200021702CF4700103F100704A010C3001218150CA
S31520002180ECE70368083323F07F4C03F0704000F13E
S3152000219000732CF470020C3350011950704700BFA5
S315200021A04CF6AC13C2F20003984206D04CF66C12E1
S315200021B0C2F20002904200D000BE042900D900BE1F
S315200021C0984206D04CF66C13C2F20003984200D017
S315200021D070470429FCD8036893F8302002F0F80CE5
S315200021E083F830C093F83000014383F830107047ED
S315200021F04CF6AC13C2F20003984210B5044607D041
S315200022004CF66C10C2F20000844201D000BE10BD14
S315200022102268117A01F00F0CBCF10C0F00F28680B7
S31520002220DFE80CF07F847A120D840784848484840A
S315200022300D00E369002B7BD02046984710BD236A0A
S31520002240002BF9D100BE10BD283222F07F4020F4A9
S31520002250700302F07041580101F1007C5CF80030F7
S3152000226013F0FF0F06D0E36A002B69D0204698476B
S315200022702268283202F0704022F07F4C00F1007371
S315200022802CF47001181D4901435813F0FF0F06D096
S31520002290236B002B50D0204698472268283202F024
S315200022A0704322F07F4C03F100702CF4700108304B
S315200022B04901435813F0FF0F06D0636B002B3DD026
S315200022C0204698472268283202F0704322F07F4C3D
S315200022D02CF4700003F100730C334101585810F0B0
S315200022E0FF0F06D0A36B002B24D0204698472268E8
S315200022F0283222F07F4C02F0704101F100722CF45A
S31520002300700310325801115811F0FF0F0FD0E36BF4
S31520002310002B91D100BE10BD636A002B8CD100BE6C
S3152000232010BDA36A002B87D100BE10BD00BE10BD14
S3152000233000BE10BD00BEDCE700BEB0E700BEC3E7AE
S3152000234000BE97E7684620F007018D4601B54CF69A
S315200023506C10C2F20000FFF74BFFBDE80140854636
S31520002360704700BF684620F007018D4601B54CF640
S31520002370AC10C2F20000FFF73BFFBDE801408546E6
S31520002380704700BF4CF6AC13C2F20003984230B43B
S3152000239006D04CF66C12C2F20002904200D000BE6B
S315200023A00169002953D0426902B900BE984207D07C
S315200023B04CF66C13C2F20003984201D030BC704731
S315200023C00029FBD0002AF9D00568437B2C7D44EAFE
S315200023D0030C14F0200F80F80DC0846925D0131B40
S315200023E00F2B36D94FF0100C09190A780CF1FF3350
S315200023F02A7003F00102012301349C45846113D91C
S3152000240032B14A78022301349C452A7084610BD963
S31520002410CA5C01342A7001338461CA5C01330134F9
S315200024209C452A708461F3D842699442C6D10268D9
S315200024300021131D23F07F4C03F0704202F100733C
S315200024402CF470020433520199504161B6E700BE64
S31520002450A9E7002BE9D09C46C6E700BF2DE9F04F3F
S315200024604CF6AC13C2F200038FB0984204460D918D
S315200024700B9200F046814CF66C12C2F2000290429A
S3152000248000D000BE48F20002C4F20302976C4EF25E
S31520002490001147F48076CEF200014FF40065966471
S315200024A0C1F88051906C40F20001C4F2010120F481
S315200024B080770B2697642671216000220D460A71CB
S315200024C001F1100605F8082F01F1380A2AF07F4B92
S315200024D001F1340925F07F4726F07F4805F0704545
S315200024E006F070460AF0704ACDF810A0069529F03D
S315200024F07F4006F100750390019509F07049049D0F
S31520002500CDF81C90DDF80C9005F1007529F4700AC1
S315200025100A952BF47009079DDDF818B0CDF81490B4
S315200025200BF1007905F1007B049D01F1300C2CF0B4
S315200025307F4005F100750CF0704CCDF80CA0049589
S315200025400CF100750CF1007AAC46039DCDF824A061
S315200025506D010395059D28F470086D010595069D6E
S31520002560CA4605F100750695019D4FEA48181435AF
S315200025700195079D27F4700705F100750795049DC1
S315200025807F0104350495654614350895099DCDF8D7
S3152000259030801C3509950A9D4FF001080C350AF14B
S315200025A0080A09F104090A9506F1007649F8078018
S315200025B00C9D4AF80780DDF818A010364AF80780E7
S315200025C07251DDF80CA0019E0BF1040B72514BF8F1
S315200025D00A20DDF81CB0059D4BF80A20049EDDF884
S315200025E020A020F4700040010CF1180C7251DDF887
S315200025F024B04AF800204CF80020DDF828C09C4280
S315200026004BF800204CF8052081F8442081F848201A
S3152000261081F84C206BD04CF66C13C2F200039C421E
S3152000262016D000BE0B9D00200D7360730D9E606159
S31520002630A66025732061A06120626062E061A062CD
S31520002640E06220636063A063E0630FB0BDE8F08FB3
S315200026500D9BA36003F0D8F94CF2B811C2F2000129
S315200026600A680D9DD600B6FBF5F2D309B3F5803F77
S315200026704FEA520C38D2012B21685CD901F10C00AB
S3152000268020F07F4A00F0704606F100702AF47007A9
S31520002690C2F3C73E1C307F010D4601265FFA83FA3E
S315200026A0ACEB831CC651ACEBC31381F804E005F8F0
S315200026B030AB9B1825F07F4805F07045A3EB4C0CFA
S315200026C005F1007228F4700E1C3200234FEA4E18D2
S315200026D0BCF1FF0FC35142F8086000D900BE5FFA73
S315200026E08CF281F83C209DE700BE21689AE70D9A7E
S315200026F0A26003F089F94CF2B411C2F200010A6813
S31520002700AFE748F20006C4F20306B56C4EF200119C
S3152000271045F08000CEF200014FF48062B064C1F82B
S315200027208021B76C4FF0804127F080050A20B564E0
S3152000273020712160C1E601F10C0E2EF07F4C0EF0C7
S3152000274070422CF4700502F100724FEA451C0846CF
S315200027500025DBB21C32012642F80C600D7100F810
S31520002760303B20F07F4E00F0704000F100762EF4D2
S3152000277070031C365B0142F80C50F55052E700BF3F
S315200027804CF6AC13C2F20003984270B504461546C7
S3152000279006D04CF66C10C2F20000844200D000BE77
S315200027A020462A46FFF75AFE246805F0070504F15D
S315200027B0300004F1340320F07F4623F07F4C00F0F4
S315200027C0704203F0704126F4700001F100732CF47E
S315200027D0700602F1007271010C32002640010833A6
S315200027E0072D16505E500FD1383424F07F4E04F05A
S315200027F0704404F100732EF47000420101210C3361
S3152000280004F10074A150995070BD00BF2DE9F04726
S315200028104CF6AC1CC2F2000C604504461E469DF8E0
S3152000282020509DF8247006D04CF66C13C2F200039B
S31520002830984200D000BE2046FFF710FE226802F123
S31520002840300802F1340328F07F4C08F0704123F061
S315200028507F4A03F070482CF470042AF4700901F1C1
S31520002860007008F100714FEA441A4FEA491C0C30F7
S31520002870083101244FF0000940F80A9041F80C4035
S31520002880002E46D108F1007E0EF10C0848F80C60A7
S315200028902DBB03F0704E23F07F4C0EF100712CF40B
S315200028A07000103140010D503FB323F07F4C03F0F0
S315200028B0704E2CF470000EF1007341011433012088
S315200028C05850383222F07F4E2EF4700002F0704CB1
S315200028D00CF1007243010021D150BDE8F08703F0CE
S315200028E0704E23F07F4C2CF470040EF100716001C1
S315200028F0103101240C50002FD7D123F07F4C03F048
S31520002900704E0EF100732CF47001143348011F50E1
S31520002910D7E708F1007000F10C0848F80C40B7E73B
S315200029204CF6AC13C2F20003984270B5044606D0AA
S315200029304CF66C10C2F20000844200D000BE204645
S31520002940FFF78CFD2368002403F1300C03F13805D2
S31520002950343323F07F4625F07F412CF07F400CF066
S31520002960704203F0704320F4700C02F1007226F4DA
S31520002970700003F1007321F4700605F070457101B3
S315200029800C324FEA4C1C0833400105F10075012634
S3152000299042F80C601C506C5070BD00BFF8B54CF668
S315200029A0AC13C2F200039842044606D04CF66C10D3
S315200029B0C2F20000844200D000BE2046FFF74EFD42
S315200029C0256842F2853105F1300205F138063435A5
S315200029D022F07F4725F07F4C26F07F4302F070409F
S315200029E005F0704223F4700327F4700500F100709F
S315200029F02CF4700702F1007206F070464FEA471C6D
S31520002A000C305F016D010023083206F10076C2F218
S31520002A1000014351616242F80C30F351F8BD00BF0A
S31520002A20F0B44CF6E0034EF2001546F20004C2F272
S31520002A3000030022C4F20104CEF200054FF4002662
S31520002A40C5F88060A260C5F880615A7183F8242099
S31520002A509A811A715A61DA832768186027F020074D
S31520002A6027602068996140F010012160A0681A62F1
S31520002A7020F00101A160A0689A6040F00201A160E7
S31520002A801A612E609A83F0BC704700BF10B54CF6D1
S31520002A90E004C2F20004236A2BB10146A0699847DC
S31520002AA000232371236210BD08B54CF6E003C2F261
S31520002AB000031A7902B908BDB3F81EC01FFA8CF0BC
S31520002AC0FFF7E4FF46F20003C4F2010318681A4632
S31520002AD040F001011960116811F0010FFBD108BD0A
S31520002AE02DE9F8454EF2001646F200050024C4F200
S31520002AF00105CEF200064FF40027C6F88070AC60C0
S31520002B00C6F880719846064617468A46FFF7CCFFD8
S31520002B104CF6E002C2F20002012156711171948135
S31520002B205461D48351792B68089823F00403976164
S31520002B30A2F81C80946210622B60946014616C6809
S31520002B4046F2000314F0010FC4F20103F7D0996195
S31520002B5019681C4641F004001860606846F20003BC
S31520002B6010F0010FC4F20103F7D0C3F814A01968BE
S31520002B7021F004000321186082F8241098684EF290
S31520002B80001240F002019960CEF200024FF40023B9
S31520002B901360BDE8F88500BF2DE9F045044683B0F3
S31520002BA015461F460E4601B900BE4EF2001046F2EB
S31520002BB00008C4F20108CEF200004FF0000A4FF4DC
S31520002BC00021C0F88010C8F808A0C0F88011FFF7CF
S31520002BD06BFF4CF6E001C2F2000101220A7194F863
S31520002BE000C08D6181F805C08E81C1F814A0A1F8BE
S31520002BF01EA04D79D8F800300A980B9A23F00403CA
S31520002C0088628F830A62C8F800308C60C1F810A0F1
S31520002C104046426846F2000312F0010FC4F2010357
S31520002C20F7D09D61186820F004021A60586800F0F9
S31520002C30010201920198002856D0B6F1010C53D01A
S31520002C4060781A4618615B680CF1FF3E03F00105B7
S31520002C50019501980EF001050123E8B1BCF1010FA1
S31520002C601AD925B1A07802230EE09C4514D9E5187F
S31520002C706878013310615068E51800F00100019072
S31520002C80019848B1687801331061506800F001005E
S31520002C90019001980028E8D101339E4218D80522D8
S31520002CA04FF0000E81F82420A1F80CE046F2000334
S31520002CB0C4F2010399684EF2001041F00302CEF2ED
S31520002CC000004FF400219A60016003B0BDE8F08552
S31520002CD08889E418C31A1FFA83FC012281F824206C
S31520002CE0A1F80CC08C60E1E70123D6E72DE9F04777
S31520002CF082B0044615469846BDF82C700E4601B99A
S31520002D0000BE4EF2001346F2000AC4F2010ACEF2C9
S31520002D1000034FF400214FF00009C3F88010CAF8D1
S31520002D200890C3F88011FFF7BFFE4CF6E001C2F20F
S31520002D3000010120087194F800C00D6181F805C0DA
S31520002D408E81C1F81480A1F81E90DAF808300A9A0C
S31520002D5043F00205CAF808504D79DAF800008A6176
S31520002D600C9A20F004038F83C1F828900A62CAF8CF
S31520002D7000308C605046426846F2000312F0010F84
S31520002D80C4F20103F7D09D61186820F004021A608E
S31520002D90586800F0010201920198002858D0B6F137
S31520002DA0010C55D060781A4618615B680CF1FF3E1D
S31520002DB003F00105019501980EF001050123E8B104
S31520002DC0BCF1010F1AD925B1A07802230EE09C454B
S31520002DD014D9E5186878013310615068E51800F0B9
S31520002DE001000190019848B168780133106150685C
S31520002DF000F00100019001980028E8D101339E429D
S31520002E001AD84FF0000EA1F80CE04A694CF6E00300
S31520002E10C2F2000362B9032083F824004EF20013A5
S31520002E20CEF200034FF400221A6002B0BDE8F0870C
S31520002E30022183F82410F1E78889E418C31A1FFABF
S31520002E4083FC012281F82420A1F80CC08C60E5E7E0
S31520002E500123D4E708B54CF6E003C2F200031B6851
S31520002E6003B1984708BD00BF46F20003C4F2010330
S31520002E70F0B55C689A68E4B2144014F0020F83B08F
S31520002E8020D114F0010F01D103B0F0BD4CF6E004BF
S31520002E90C2F2000494F82410022977D0052927D0FD
S31520002EA0012900F0C88046F20003C4F201039A68A3
S31520002EB0002022F001019960FFF7E8FD002084F848
S31520002EC02400E1E74CF6E0051969C2F2000595F801
S31520002ED024008EB2F3B206F40046052800F294814F
S31520002EE0DFE810F01E011701170176013A016C0187
S31520002EF06269002A00F0F58061694CF6E003C2F2AF
S31520002F000003002900F0948146F20002C4F2010277
S31520002F105D691068196920F004031360536803F093
S31520002F2001000190019B002B00F0A081002D00F0F4
S31520002F309D810B78136150686B1E00F00106019687
S31520002F40019803F001060123D0B1012D18D926B12D
S31520002F50487802230CE09D4212D9C85C01331061E7
S31520002F60506800F001000190019848B1C85C013317
S31520002F701061506800F00100019001980028EAD104
S31520002F806269C918D31A216163617DE76269002AE3
S31520002F9000F05F8146F20002C4F2010265691368FF
S31520002FA0206923F004031360536803F0010301939F
S31520002FB0019B002B00F05681002D00F053810378F1
S31520002FC0136157686B1E07F001060196019E03F0F8
S31520002FD001070123DEB1012D19D92FB146780B4601
S31520002FE016610DE09D4212D9C15C01331161516811
S31520002FF001F001010191019949B1C15C01331161CF
S31520003000516801F00101019101990029EAD1616914
S315200030104CF6E0029942C2F2000200F2FC8046F22F
S315200030200003C4F20103996821F00100986003208F
S3152000303082F8240028E7A389002B00F0058146F2B8
S315200030400002C4F20102A5891368ADB223F0040080
S3152000305010605368A06803F001030193019B002BC5
S3152000306000F00281002D00F0FF800378136157687D
S315200030706B1E07F001060196019E03F001070B4621
S31520003080D6B1012D18D927B1417802230CE09D42F3
S3152000309012D9C15C01331161516801F0010101911E
S315200030A0019949B1C15C01331161516801F00101F7
S315200030B0019101990029EAD1A1894CF6E0021FFA73
S315200030C081FC9C45C2F2000200F2AB804FF0000C5E
S315200030D0A2F80CC050690028A9D0022382F8243017
S315200030E0D2E6A36A002B00F0B98004F110009847BD
S315200030F060616369002B7FF4FFAE46F20003C4F2E1
S3152000310001039A68032122F00100986084F82410B4
S31520003110F2E6002E3FF4B5AE1846FFF79BFEB0E66A
S31520003120002E3FF4AEAEF12BF6D14FF00002EA832B
S31520003130E98BAB6988B26FF00E0C03F800C0E98BFF
S31520003140481C81B2E983E88B1FFA80FC03F80C2027
S31520003150042385F8243094E6002EDDD1B5F81EC070
S31520003160A9691FFA8CF00F1817F8012C4CF6E00706
S31520003170F12AC2F200077BD0F88BBA8B1FFA80FCAB
S31520003180944508D2F88B1FFA80FC01F80C30F88B96
S31520003190431C99B2F983EB8B4CF6E00599B28A422F
S315200031A0C2F200057FF46DAEB5F81EE01FFA8EF070
S315200031B0FFF76CFC002285F8242062E6002EABD1B6
S315200031C0A96902204B70FFF761FC85F8246058E658
S315200031D0002E3FF456AE95F805C04CF6E002634546
S315200031E0C2F2000298D14FF00000D083D18B9069B3
S315200031F01FFA81FC00F80C30D38B0420591C8BB2AB
S3152000320082F82400D3833CE60020FFF73FFC002011
S3152000321085F8240035E65169C018CB1A1061536130
S3152000322032E69189C018CB1A9BB2906093812BE627
S3152000323046F20002C4F20102906820F00101032048
S31520003240916083F824001FE600BE03B0BDE8F0407D
S315200032502AE400BE03B0BDE8F04025E400BEFFF737
S3152000326023FC49E60023D2E6002325E7002387E650
S31520003270F88B82B28B54B7F81EE01FFA8EF3C9186A
S3152000328011F8010CFFF7E6FD87F82460F9E500BF89
S3152000329000B5E02883B01DD0E12844D080F0800C12
S315200032A0F12814BF00230123BCF11F0F98BF43F060
S315200032B0010333B9A02804D000F14F01CAB2062A6F
S315200032C006D84CF60C12C2F20002517913689847C0
S315200032D003B000BD48F2000141F288330193C4F2E5
S315200032E00301D1F89800019B5A1E10F4805F0192C9
S315200032F002D101980028F4D148F20002C4F2030258
S31520003300D2F898304CF60C11C2F2000123F46E6C00
S315200033100B682CF01C00C2F89800002BD8D04979F5
S31520003320E0209847D4E748F2000141F28830019026
S31520003330C4F20301D1F898300198421E13F4805F3D
S31520003340019202D0019B002BF4D14CF60C12C2F252
S315200033500002906848F200011368C4F20301C1F824
S315200033609800002BB4D05179E1209847B0E700BFF0
S3152000337008B54CF2A813C2F20003196848F20003FC
S31520003380C4F203034CF60C12D960C2F20002116992
S31520003390D268C3F89C2009B14078884708BD00BF91
S315200033A04CF60C13C2F2000300221A75D98270471C
S315200033B0F0B548F20000C4F20300D0F84C214FF6D5
S315200033C002039A4287B069D048F20005C4F2030589
S315200033D0D5F84C114FF60204C0F20104A1425BD08D
S315200033E048F20002C4F20302D2F84C614FF60207FB
S315200033F0C0F20207BE424DD048F20003C4F20303D6
S31520003400D3F84C014FF6020CC0F2030C60453FD0B6
S315200034104CF60C14C2F20004217D4CF60C15C2F2B7
S3152000342000058C460029F7D14FF0010E85F814E0EF
S3152000343002274FF01F0E43F2A136A5F816C00A4602
S31520003440C2F200068DF814E004AD4FF0200E394686
S3152000345005A863468DF815E0009502960197FFF7BB
S3152000346045FC227D4CF60C13C2F20003002AF8D14B
S31520003470B3F816C0BCF1020F02D0C82007B0F0BDC9
S315200034809DF810301F2B08BF9DF81100F5D1F5E7E8
S3152000349000BEBDE700BEAFE700BEA1E700BE93E7D2
S315200034A0F0B548F20000C4F20300D0F84C214FF6E4
S315200034B002039A4287B06AD048F20005C4F2030597
S315200034C0D5F84C114FF60204C0F20104A1425CD09B
S315200034D048F20002C4F20302D2F84C614FF602070A
S315200034E0C0F20207BE424ED048F20003C4F20303E4
S315200034F0D3F84C014FF6020CC0F2030C604540D0C5
S315200035004CF60C14C2F20004217D4CF60C15C2F2C6
S3152000351000058C460029F7D14FF0010E85F814E0FE
S315200035204FF01F0E022743F2A1368DF814E04FF01C
S31520003530100EA5F816C00A46C2F200060DEB0E05BF
S31520003540394605A863468DF815E000950296019741
S31520003550FFF7CCFB227D4CF60C13C2F20003002AA7
S31520003560F8D1B3F816C0BCF1020F02D0C82007B0BC
S31520003570F0BD9DF810301F2B08BF9DF81100F5D126
S31520003580F5E700BEBCE700BEAEE700BEA0E700BE82
S3152000359092E700BFF0B548F20000C4F20300D0F86D
S315200035A04C214FF602039A4287B069D048F20005B3
S315200035B0C4F20305D5F84C114FF60204C0F20104FB
S315200035C0A1425BD048F20002C4F20302D2F84C6159
S315200035D04FF60207C0F20207BE424DD048F2000362
S315200035E0C4F20303D3F84C014FF6020CC0F2030CCD
S315200035F060453FD04CF60C14C2F20004217D4CF6F7
S315200036000C15C2F200058C460029F7D14FF0010EA9
S3152000361085F814E002274FF01F0E43F2A136A5F8D5
S3152000362016C00A46C2F200068DF814E004AD4FF02B
S31520003630080E394605A863468DF815E000950296D2
S315200036400197FFF753FB227D4CF60C13C2F20003C1
S31520003650002AF8D1B3F816C0BCF1020F02D0C82058
S3152000366007B0F0BD9DF810301F2B08BF9DF8110044
S31520003670F5D1F5E700BEBDE700BEAFE700BEA1E786
S3152000368000BE93E7F0B548F20000C4F20300D0F87C
S315200036904C214FF602039A4287B069D048F20005C2
S315200036A0C4F20305D5F84C114FF60204C0F201040A
S315200036B0A1425BD048F20002C4F20302D2F84C6168
S315200036C04FF60207C0F20207BE424DD048F2000371
S315200036D0C4F20303D3F84C014FF6020CC0F2030CDC
S315200036E060453FD04CF60C14C2F20004217D4CF606
S315200036F00C15C2F200058C460029F7D14FF0010EB9
S3152000370085F814E002274FF01F0E43F2A136A5F8E4
S3152000371016C00A46C2F200068DF814E004AD4FF03A
S31520003720040E394605A863468DF815E000950296E5
S315200037300197FFF7DBFA227D4CF60C13C2F2000349
S31520003740002AF8D1B3F816C0BCF1020F02D0C82067
S3152000375007B0F0BD9DF810301F2B08BF9DF8110053
S31520003760F5D1F5E700BEBDE700BEAFE700BEA1E795
S3152000377000BE93E7F0B548F20000C4F20300D0F88B
S315200037804C214FF602039A4287B067D048F20005D3
S31520003790C4F20305D5F84C114FF60204C0F2010419
S315200037A0A14259D048F20002C4F20302D2F84C6179
S315200037B04FF60207C0F20207BE424BD048F2000382
S315200037C0C4F20303D3F84C014FF6020CC0F2030CEB
S315200037D060453DD04CF60C14C2F20004217D4CF617
S315200037E00C15C2F200058C460029F7D102264FF0AF
S315200037F0010E43F2A13785F814E00A46A5F816C053
S31520003800C2F200074FF01F0E04AD314605A86346ED
S315200038108DF814E0009502978DF815600196FFF754
S3152000382065FA227D4CF60C13C2F20003002AF8D169
S31520003830B3F816C0BCF1020F02D0C82007B0F0BD05
S315200038409DF810301F2B08BF9DF81100F5D1F5E724
S3152000385000BEBFE700BEB1E700BEA3E700BE95E706
S315200038602DE9F04148F20000C4F20300D0F84C21C3
S315200038704FF602039A4286B06AD048F20005C4F297
S315200038800305D5F84C114FF60204C0F20104A142FB
S315200038905CD048F20002C4F20302D2F84C614FF623
S315200038A00207C0F20207BE424ED048F20003C4F21D
S315200038B00303D3F84C014FF60208C0F20308404533
S315200038C040D04CF60C14C2F20004217D4CF60C15A7
S315200038D0C2F200058C460029F7D14FF01F0E43F2A5
S315200038E0A13602274FF00108C2F200068DF814E037
S315200038F00DF1100ECDF800E002960A4685F81480E8
S315200039003946A5F816C005A863468DF81580019797
S31520003910FFF7ECF9227D4CF60C13C2F20003002AC5
S31520003920F8D1B3F816C0BCF1020F03D0C82006B0F8
S31520003930BDE8F0819DF810301F2B08BF9DF81100BF
S31520003940F4D1F4E700BEBCE700BEAEE700BEA0E7B8
S3152000395000BE92E72DE9F04148F20001C4F20301CE
S31520003960D1F84C314FF60202934286B086466AD091
S3152000397048F20005C4F20305D5F84C014FF60204BF
S31520003980C0F20104A0425CD048F20002C4F2030255
S31520003990D2F84C614FF60207C0F20207BE424ED063
S315200039A01EF0300F0BD048F20003C4F20303D3F805
S315200039B04C114FF60208C0F20208414545D04CF69C
S315200039C00C14C2F20004207D4CF60C15C2F2000540
S315200039D084460028F7D102274FF0010843F2A1368A
S315200039E085F814800246A5F816C0C2F200064FF0EC
S315200039F0170804AD394605A863468DF814808DF85E
S31520003A0015E0009502960197FFF770F9227D4CF696
S31520003A100C13C2F20003002AF8D1B3F816C0BCF189
S31520003A20020F03D0C82006B0BDE8F0819DF810E053
S31520003A30BEF1170F08BF9DF81100F3D1F3E700BEC2
S31520003A40AEE700BEA0E700BE92E700BEB7E700BF24
S31520003A5048F20003C4F20303DA682DE9F04F4CF272
S31520003A60A815C2F200052A60D3F89C704CF60C14F7
S31520003A70C2F20004E760D3F8986042F4FF57A660CC
S31520003A80DF60D3F89C200022C3F89C20D3F89C70DA
S31520003A90804647F40076C3F89C60D3F89C008BB030
S31520003AA040F480628E46C3F89C20217D4CF60C168D
S31520003AB0C2F200068C460029F7D14FEA1E63059311
S31520003AC04FF0010A86F814A043F2A137A6F816C0D3
S31520003AD0634609AEDDF814C00A46C2F200074FEA73
S31520003AE01E294FEA1E4B4FF0140A009607A80226FD
S31520003AF006218DF81CA08DF81D808DF81F908DF85D
S31520003B0020B08DF821C0019602978DF81EE0FFF7B0
S31520003B10EDF8227D4CF60C13C2F20003002AF8D1F0
S31520003B20B3F816E0BEF1020F0FD0C8202A6848F27B
S31520003B300003C4F20303DA60E168C3F89C10A268AC
S31520003B40C3F898200BB0BDE8F08F9DF824101429F7
S31520003B5008BF9DF82500E8D1E8E700BFF0B548F298
S31520003B600000C4F20300D0F84C214FF602039A421B
S31520003B7087B042D048F20005C4F20305D5F84C11AF
S31520003B804FF60204C0F20104A14243D048F20002DB
S31520003B90C4F20302D2F84C614FF60207C0F20207C4
S31520003BA0BE4244D04CF60C14C2F20004237D4CF6DF
S31520003BB00C15C2F200051E46002BF7D143F2A137A1
S31520003BC04FF0010C06A86FF00F0EC2F2000700F8A6
S31520003BD001ED1A460297614685F814C0EE820096DA
S31520003BE00196FFF783F8207D4CF60C13C2F20003F2
S31520003BF00028F8D1DB8A07B0F0BD00BE48F20005E8
S31520003C00C4F20305D5F84C114FF60204C0F20104A4
S31520003C10A142BBD100BE48F20002C4F20302D2F890
S31520003C204C614FF60207C0F20207BE42BAD100BE6F
S31520003C30B8E700BFF0B54CF60C1487B08646C2F242
S31520003C400004237D4CF60C15C2F200059C46002B81
S31520003C50F7D101272F7543F2A136A5F816C004AD7A
S31520003C60C2F200062C2700951A46032505A8022134
S31520003C708DF814708DF815E001950296FFF736F849
S31520003C80227D4CF60C13C2F20003002AF8D1D98A01
S31520003C90032902D0C82007B0F0BD9DF810C0BCF1A2
S31520003CA02C0F08BF9DF81100F4D1F4E7F0B54CF6BF
S31520003CB00C1487B0C2F20004237D4CF60C15C2F218
S31520003CC000059C46002BF7D128214FF0010E05AFA9
S31520003CD006A843F2A13600F8011DC2F2000600979D
S31520003CE01A460227714685F814E001970296A5F830
S31520003CF016C0FEF7FBFF227D4CF60C13C2F2000322
S31520003D00002AF8D1B3F816C0BCF1020F02D0C820A1
S31520003D1007B0F0BD9DF81430282B08BF9DF815007C
S31520003D20F5D1F5E7F0B54CF60C1487B0C2F20004D5
S31520003D30237D4CF60C15C2F200059C46002BF7D1CC
S31520003D4001272F7543F2A136A5F816C005ADC2F29C
S31520003D5000062D2700951A46022504A804218DF871
S31520003D6010708DF813C0019502968DF811C08DF84C
S31520003D7012C0FEF7BBFF227D4CF60C13C2F20003E5
S31520003D80002AF8D1D98A022902D0C82007B0F0BD6E
S31520003D909DF814C0BCF12D0F08BF9DF81500F4D175
S31520003DA0F4E700BF70B54BF69C6198B060240646D8
S31520003DB02246C2F20001684602F09CF83046694667
S31520003DC022466D4602F096F818B070BD2DE9F045F2
S31520003DD04CF60C1483B0804616461D46C2F20004EB
S31520003DE0237D4CF60C17C2F200079C46002BF7D118
S31520003DF043F2A13E4FF0010A87F814A0C2F2000E4A
S31520003E00A7F816C0404632462B46CDF800E0FEF70E
S31520003E1067FE227D4CF60C13C2F20003002AF8D16D
S31520003E20B3F816C01FFA8CF18D4203D0C82003B018
S31520003E30BDE8F0853378434508BF7078F6D1F6E7BC
S31520003E402DE9F04F48F20004C4F20304D4F84C31B3
S31520003E5094464FF60202934289B004468E465DD0C0
S31520003E6048F20005C4F20305D5F84C014FF60201CD
S31520003E70C0F2010188424FD048F20002C4F2030288
S31520003E80D2F84C614FF60207C0F20207BE4241D07B
S31520003E9048F20003C4F20303D3F84C014FF602089C
S31520003EA0C0F20308404500D100BE4FEA1C674FEA26
S31520003EB01C210197260C00914FEA1C458DF80E60B7
S31520003EC08DF81650009E019D4FEA14684FEA1E6B2E
S31520003ED0270A4FEA1E2A4FEA1E49112003A906AADD
S31520003EE006238DF80D708DF80F808DF811A08DF8B2
S31520003EF012908DF813B08DF815608DF817508DF847
S31520003F000C408DF810E08DF814C0FFF75FFF09B064
S31520003F10BDE8F08F00BEBBE700BEADE700BE9FE761
S31520003F202DE9F04F48F20004C4F20304D4F84C31D2
S31520003F3094464FF60202934289B004468E465DD0DF
S31520003F4048F20005C4F20305D5F84C014FF60201EC
S31520003F50C0F2010188424FD048F20002C4F20302A7
S31520003F60D2F84C614FF60207C0F20207BE4241D09A
S31520003F7048F20003C4F20303D3F84C014FF60208BB
S31520003F80C0F20308404500D100BE4FEA1C674FEA45
S31520003F901C210197260C00914FEA1C458DF80E60D6
S31520003FA08DF81650009E019D4FEA14684FEA1E6B4D
S31520003FB0270A4FEA1E2A4FEA1E49102003A906AAFD
S31520003FC006238DF80D708DF80F808DF811A08DF8D1
S31520003FD012908DF813B08DF815608DF817508DF866
S31520003FE00C408DF810E08DF814C0FFF7EFFE09B0F5
S31520003FF0BDE8F08F00BEBBE700BEADE700BE9FE781
S3152000400030B548F20001C4F20301D1F84C314FF625
S315200040100202934285B084463ED048F20005C4F29F
S315200040200305D5F84C014FF60204C0F20104A04264
S3152000403030D048F20003C4F20303D3F84C214FF6E4
S31520004040020EC0F2020E724522D048F20004C4F2DB
S315200040500304D4F84C114FF60200C0F2030081424B
S3152000406000D100BE4FEA1C6E4FEA1C254FEA1C44C5
S315200040701D2003A901AA06238DF80D508DF80E40A8
S315200040808DF80FE08DF80CC0FFF7A0FE05B030BD0F
S3152000409000BEDAE700BECCE700BEBEE730B548F288
S315200040A00001C4F20301D1F84C314FF602029342CB
S315200040B085B084463ED048F20005C4F20305D5F803
S315200040C04C014FF60204C0F20104A04230D048F25F
S315200040D00003C4F20303D3F84C214FF6020EC0F2BC
S315200040E0020E724522D048F20004C4F20304D4F82A
S315200040F04C114FF60200C0F20300814200D100BEEF
S315200041004FEA1C6E4FEA1C254FEA1C441C2003A9CB
S3152000411001AA06238DF80D508DF80E408DF80FE07C
S315200041208DF80CC0FFF752FE05B030BD00BEDAE7B1
S3152000413000BECCE700BEBEE770B548F20001C4F26F
S315200041400301D1F84C314FF60202934286B08446E1
S3152000415041D048F20005C4F20305D5F84C014FF6CC
S315200041600204C0F20104A04233D048F20002C4F295
S315200041700302D2F84C614FF6020EC0F2020E7645CB
S3152000418025D048F20000C4F20300D0F84C114FF6B7
S315200041900203C0F20303994200D100BE4FEA1C6E0F
S315200041A04FEA1C254FEA1C4404261A2001A904AA1A
S315200041B006238DF804608DF806508DF807408DF89B
S315200041C008E08DF805C0FFF701FE06B070BD00BE01
S315200041D0D7E700BEC9E700BEBBE700BF70B548F20F
S315200041E00001C4F20301D1F84C314FF6020293428A
S315200041F086B0844641D048F20005C4F20305D5F8BE
S315200042004C014FF60204C0F20104A04233D048F21A
S315200042100002C4F20302D2F84C614FF6020EC0F23D
S31520004220020E764525D048F20000C4F20300D0F8ED
S315200042304C114FF60203C0F20303994200D100BE8F
S315200042404FEA1C6E4FEA1C254FEA1C4403261A200F
S3152000425001A904AA06238DF804608DF806508DF86E
S3152000426007408DF808E08DF805C0FFF7AFFD06B0D2
S3152000427070BD00BED7E700BEC9E700BEBBE700BFE2
S3152000428070B548F20004C4F20304D4F84C314FF65A
S315200042900202934284B084463FD048F20006C4F21C
S315200042A00306D6F84C014FF60205C0F20105A842D6
S315200042B031D048F20003C4F20303D3F84C214FF661
S315200042C0020EC0F2020E724523D048F20005C4F257
S315200042D00305D5F84C414FF60200C0F20300844294
S315200042E000D100BE0C681B204FEA146E260A250C4E
S315200042F002A96A4606238DF809608DF80A508DF8C2
S315200043000BE08DF80CC08DF80840FFF75FFD04B078
S3152000431070BD00BED9E700BECBE700BEBDE700BF3B
S3152000432000B548F20001C4F20301D1F84C314FF632
S315200043300202934287B0844636D048F20002C4F285
S315200043400302D2F84C014FF6020EC0F2010E704560
S3152000435028D048F20000C4F20300D0F84C114FF6E2
S315200043600203C0F2020399421AD048F20001C4F2B5
S315200043700301D1F84C214FF6020EC0F2030E72450E
S3152000438000D100BE4FF0050E1A2001A904AA06236B
S315200043908DF804E08DF80DC0FFF718FD07B000BDBD
S315200043A000BEE2E700BED4E700BEC6E72DE9F04F27
S315200043B048F20004C4F20304D4F84C619C464FF63C
S315200043C002039E4287B005468E4614465BD048F2CD
S315200043D00001C4F20301D1F84C214FF60200C0F2CD
S315200043E0010082424DD048F20003C4F20303D3F801
S315200043F04C714FF60208C0F2020847453FD048F2FA
S315200044000002C4F20302D2F84C614FF60209C0F250
S3152000441003094E452CD0002C2DD001218DF80410F7
S315200044204FEA1C6A4FEA146B4FEA1C274FEA1C48D6
S315200044304FEA1429260C1A2001A904AA06238DF86E
S3152000444006708DF807808DF808A08DF80A908DF8F3
S315200044500B608DF80CB08DF80D508DF80EE08DF8B0
S3152000446005C08DF80940FFF7B1FC07B0BDE8F08F15
S3152000447000BE002CD1D102208DF80400D0E700BE6A
S31520004480BDE700BEAFE700BEA1E700BFF0B548F22A
S315200044900001C4F20301D1F84C314FF602029342D7
S315200044A087B0044640D048F20006C4F20306D6F888
S315200044B04C014FF60205C0F20105A84232D048F25F
S315200044C00002C4F20302D2F84C714FF6020CC0F27D
S315200044D0020C674524D048F20003C4F20303D3F844
S315200044E04C114FF6020EC0F2030E714500D100BEEC
S315200044F001A9081D0025064646F8045B871D04AA67
S315200045001A2006233D703580ADF814500195049588
S31520004510FFF75CFC9DF80DC084F800C007B0F0BD25
S3152000452000BED8E700BECAE700BEBCE700B548F229
S315200045300000C4F20300D0F84C214FF602039A4241
S3152000454083B033D048F20002C4F20302D2F84C11F1
S315200045504FF6020CC0F2010C614525D048F200034B
S31520004560C4F20303D3F84C014FF6020EC0F2020E3A
S31520004570704517D048F20002C4F20302D2F84C115B
S315200045804FF6020CC0F2030C614500D100BE01209B
S3152000459002A901F8010D01AA19200223FFF716FC32
S315200045A003B000BD00BEE5E700BED7E700BEC9E701
S315200045B000B548F20000C4F20300D0F84C214FF6B3
S315200045C002039A4283B033D048F20002C4F20302B7
S315200045D0D2F84C114FF6020CC0F2010C614525D0E1
S315200045E048F20003C4F20303D3F84C014FF6020E3F
S315200045F0C0F2020E704517D048F20002C4F2030240
S31520004600D2F84C114FF6020CC0F2030C614500D1D2
S3152000461000BE002002A901F8010D01AA19200223DB
S31520004620FFF7D4FB03B000BD00BEE5E700BED7E729
S3152000463000BEC9E730B585B084464FEA106E050A3C
S31520004640040C8DF804108DF805202B20694602AA4B
S3152000465006238DF801508DF802408DF803E08DF881
S3152000466000C0FFF7B3FB05B030BD00BF2DE9F04F0A
S3152000467087B09DF840909DF844B086468C46050E3E
S315200046804FEA116A070A060C4FEA11280C0C8DF81E
S315200046900C208DF80D302A2001A904AA06238DF8B6
S315200046A005708DF806608DF807508DF809808DF815
S315200046B00A408DF80BA08DF80E908DF80FB08DF86E
S315200046C004E08DF808C0FFF781FB07B0BDE8F08F46
S315200046D02DE9F0410C0A84B084468E46050E070A61
S315200046E0060C06238DF8054090462920694602AA25
S315200046F04FF0FF348DF801708DF802608DF803506D
S315200047008DF806408DF800C08DF804E0FFF75EFBBB
S31520004710034618B99DF8062088F80020184604B0EC
S31520004720BDE8F08130B589B06C4603464FEA106C7F
S315200047304FEA104E8DF80410050A1146601D10220E
S315200047408DF800308DF801508DF802E08DF803C009
S3152000475001F0D0FB69460E2006AA0623FFF736FB9A
S3152000476009B030BDF0B591B001AC0E4617460146F2
S3152000477020220546204601F0BDFB3946102204F1D1
S3152000478021008DF8246001F0B5FB092021460EAAF0
S315200047900623FFF71BFB064620B928462146202282
S315200047A001F0A8FB304611B0F0BD00BF2DE9F04F57
S315200047B095B003AF1C460D461646014620223846C4
S315200047C001F098FB4FEA14682B0E0093CDF8048075
S315200047D04FEA164E4FEA144C8DF82EE08DF836C06F
S315200047E0DDF800E0DDF804C04FEA166B39464FEAE3
S315200047F01528370A4FEA154A4FEA14290C2012AA1F
S3152000480006238DF82D708DF82FB08DF831808DF818
S3152000481032A08DF833E08DF835908DF837C08DF8BD
S315200048202C608DF830508DF83440FFF7CFFA15B054
S31520004830BDE8F08F2DE9F04F844689B0030E000ABB
S315200048400E0C019300904FEA1C458DF80E608DF8F2
S315200048501650009E019D0C4696464FEA11684FEA77
S31520004860126B0F0A4FEA122A4FEA12490A2003A9AD
S3152000487006AA06238DF80D708DF80F808DF811A0ED
S315200048808DF812908DF813B08DF815608DF81750AD
S315200048908DF80C408DF810E08DF814C0FFF796FACD
S315200048A009B0BDE8F08F00BF2DE9F04F95B003AEFB
S315200048B0174688462022014630461E9D1F9C01939E
S315200048C001F018FB4146102206F1200001F012FBF0
S315200048D04FEA172E8DF83DE0DDF804E006204FEA7A
S315200048E015694FEA146B31464FEA154C2E0A4FEAEA
S315200048F014284FEA144A8DF83EE012AA4FF0000E13
S3152000490003468DF83FE08DF841608DF842C08DF862
S3152000491043908DF845808DF846A08DF847B08DF8E8
S315200049203C708DF840508DF84440FFF74FFA15B093
S31520004930BDE8F08F2DE9F04F91B0102703AE1A9DF8
S3152000494090468A463A46014630461B9C019301F022
S31520004950D1FAF01951463A4601F0CCFA25FA07FC6D
S315200049604FEA182E8DF82DE0DDF804E04FEA1569A0
S315200049704FEA146B3146270A2E0A4FEA144A8DF85D
S315200049802EE003204FF0000E0EAA06238DF82FE00E
S315200049908DF831608DF832C08DF833908DF83570F2
S315200049A08DF836A08DF837B08DF82C808DF83050E4
S315200049B08DF83440FFF70AFA11B0BDE8F08F00BF3A
S315200049C000B548F20001C4F20301D1F84C314FF68C
S315200049D00202934283B001462FD048F20002C4F26D
S315200049E00302D2F84C014FF6020CC0F2010C6045CE
S315200049F021D048F20003C4F20303D3F84C014FF64A
S31520004A00020EC0F2020E704513D048F20000C4F226
S31520004A100300D0F84C214FF6020CC0F2030C62457D
S31520004A2000D100BE1E206A460623FFF7CFF903B049
S31520004A3000BD00BEE9E700BEDBE700BECDE700BF54
S31520004A4000B583B001466A4600200623FFF7BEF96B
S31520004A5003B000BD00B583B001466A460520062393
S31520004A60FFF7B4F903B000BD00B583B001466A462E
S31520004A7004200623FFF7AAF903B000BD00B583B0D2
S31520004A8001466A4601200623FFF7A0F903B000BDC0
S31520004A902DE9F04548F20004C4F20304E6684CF21E
S31520004AA0A815C2F200052E60D4F89CC04CF60C1353
S31520004AB0C2F2000346F4FF56C3F80CC085B0E66088
S31520004AC0074688469646187690B10021D4F89C2051
S31520004AD0C4F89C10D4F89C0040F40076C4F89C607E
S31520004AE0D4F89C20012042F48061C4F89C102871DF
S31520004AF01D7D4CF60C14C2F20004AC46002DF7D1F5
S31520004B0002214FF0010A44F62D4643F2713584F80E
S31520004B1014A0C4F810E0A4F816C0C4F81C80C2F291
S31520004B200006C2F200054FF0150A04F1200203A880
S31520004B300B468DF80CA08DF80D7000960195FEF7AA
S31520004B402BF805B0BDE8F0852DE9F0414BF6FC6168
S31520004B5080464CF66C10C2F2000086B0C2F200010C
S31520004B60FCF7E4FB48F20000C4F20300D0F84C2125
S31520004B704FF602039A4257D048F20005C4F20305C5
S31520004B80D5F84C114FF60204C0F20104A14249D0D7
S31520004B9048F20007C4F20307D7F898304CF60C14F5
S31520004BA0C2F20004A360D7F8882042F00606C7F8B0
S31520004BB08860207D4CF60C15C2F20005844600283C
S31520004BC0F7D1022643F2A1374FF0010E85F814E003
S31520004BD00246A5F816C0C2F2000704AD314605A864
S31520004BE063468DF81580009502978DF8146001961E
S31520004BF0FEF77CF8217D4CF60C13C2F20003002947
S31520004C00F8D1B3F816C0BCF1020F03D0C82006B005
S31520004C10BDE8F0819DF81020022A08BF9DF81100FA
S31520004C20F4D1F4E700BEB3E700BEA5E730B54CF6F5
S31520004C300C14C2F200044CF2A813C2F2000394F83A
S31520004C4018C01D79BCF1000118BF012183B00022D4
S31520004C50012D14BF002101F001018DF80620054623
S31520004C608DF8072000294BD048F2000041F2883108
S31520004C700091C4F20300D0F898200099013912F46B
S31520004C80805F009102D1009A002AF4D1002048F2D8
S31520004C9000021871C4F20302D2F898304CF66C1058
S31520004CA023F46E6E2EF01C01C2F89810C2F200009A
S31520004CB003224FF4E131FDF771FE4CF66C104BF6F2
S31520004CC01C71C2F20001C2F20000FCF72FFB052086
S31520004CD000F084FE00F002FD0DF107000DF1060143
S31520004CE000F05CFD9DF80730EF2B0FD04CF66C10D2
S31520004CF04BF65C71C2F20000C2F20001FCF716FB13
S31520004D00E3699BB12846984703B030BD9DF806C09D
S31520004D10BCF1400FEAD14CF66C104BF66C71C2F226
S31520004D200000C2F20001FCF701FBE9E71846EBE7B9
S31520004D304CF60C13C2F20003002148F20002D9827D
S31520004D40C4F2030219751860D2F8982043F2912014
S31520004D50C2F20000191D9A60FDF762BE4CF6682368
S31520004D60C2F20003984239D04CF6EC11C2F200018F
S31520004D70884200D000BE48F20003C4F20303996CB7
S31520004D804EF2001241F480619964CEF200020821AD
S31520004D90C2F88011996C41F2000221F48061996475
S31520004DA0C4F201021368026023F00041032311605C
S31520004DB0037100234FF0FF328266C36103674367A6
S31520004DC083678360C3600361436183610263826397
S31520004DD002648264026582650266704748F20003B7
S31520004DE0C4F20303996C4EF2001241F400719964E7
S31520004DF0CEF200020421C2F88011996C41F2000221
S31520004E0021F400719964C4F200021368026023F051
S31520004E100041022311600371CBE700BF02684CF604
S31520004E20682370B4C2F2000315689469516848F289
S31520004E3000029842C4F20302966C4EF2001325D06B
S31520004E4046F480669664CEF200030826C3F8806195
S31520004E50966C41F2000326F48066C4F20103966440
S31520004E601A684FF0030C22F0004280F804C01A6042
S31520004E700360186820F001021A601D609C61596069
S31520004E80196841F00100186070BC704746F400763E
S31520004E909664CEF200030426C3F88061966C41F234
S31520004EA0000326F40076C4F2000396641A684FF0D5
S31520004EB0020C22F0004280F804C01A600360D8E792
S31520004EC04CF6682CC2F2000C604510B406D04CF6A5
S31520004ED0EC14C2F20004A04200D000BE202B00D960
S31520004EE000BE006840F2FF0C0468CFF6007C24F078
S31520004EF002040460046824F001040460046824F0B9
S31520004F00407424F0C00444F0005444EA01010160D6
S31520004F108261016801EA0C0C4CF4807202604360E5
S31520004F20016841F00103036010BC704770B44CF671
S31520004F30682CC2F2000C60459DF80C5006D04CF649
S31520004F40EC14C2F20004A04200D000BE072900D90A
S31520004F5000BE202D00D900BE04680729266826F049
S31520004F6001062660266846F002062660266846F078
S31520004F70010626600CD840F2021C0631C2F2000C53
S31520004F8000EBC10642EA0C04737140F831403571DA
S31520004F9070BC70474CF66823C2F20003984270B585
S31520004FA004460E4606D04CF6EC10C2F200008442AF
S31520004FB000D000BE23681A6812F0020F00D100BE8E
S31520004FC0B51D54F83520B2F1FF3F1FD0996811F076
S31520004FD0040F05D02046FFF721FF236854F835201B
S31520004FE0012111FA06F6186804EBC50420F0010128
S31520004FF019601A6062799A6120795860196841F0BF
S3152000500001021A60D8690643DE6170BD00BEDDE785
S3152000501038B54CF66823C2F20003984204460D4682
S3152000502006D04CF6EC10C2F20000844200D000BE3E
S3152000503023681A6812F0020F00D100BE996811F099
S31520005040040F03D02046FFF7E9FE2368012212FA57
S3152000505005F5D86920EA0505DD6138BD4CF66823DB
S31520005060C2F20003984282B006D04CF6EC12C2F28D
S315200050700002904200D000BE0368186810F0020FAC
S3152000508005D100BE03E018690190019A01929A6841
S3152000509012F0020FF7D15961996811F0010FFBD078
S315200050A0986810F0020FFBD0186902B0704700BF55
S315200050B02DE9F0474CF6682CC2F2000C82B0604510
S315200050C004460D4616469946BDF8288006D04CF66D
S315200050D0EC13C2F20003984200D000BE23681A687F
S315200050E012F0020F00D100BE08EB0607BFB2002F58
S315200050F063D198684FF4807A10F0040F63D1196851
S3152000510040F2FF0021F001021A601968CFF6007004
S3152000511001EA000C4AEA0C0208211A605960186854
S3152000512040F001021A60996811F0400F05D11A6902
S315200051300192986810F0400FF9D0002E39D02978C6
S315200051405961002F32D0012100208C460246D3F827
S3152000515008A01AF0400F11D1D3F810A09642CDF82E
S3152000516004A007D8804582BF019B09F80030236838
S31520005170013080B20132013992B289B2D3F808A047
S315200051801AF4807A10D103290ED8664588BF15F8FF
S315200051900CA001D8674507D90CF1010C0131C3F8E1
S315200051A014A01FFA8CFC89B2BA42D0D302B0BDE853
S315200051B0F087002FFAD05E61C5E798684FEA072A84
S315200051C010F0040F9BD02046FFF728FE236896E7B1
S315200051D04CF66823C2F20003984210B406D04CF66F
S315200051E0EC12C2F20002904200D000BE03681C6896
S315200051F014F0020F00D000BE9A68002412F4806FCB
S3152000520018BFDA6A90F804C01CBF42F00102DA62C5
S31520005210846701670CF01F02012090401C684FFA3A
S315200052208CF14EF2001244F010044909CEF200022D
S315200052301C6042F8210010BC704700BF4CF6682362
S31520005240C2F20003984270B406D04CF6EC12C2F2B9
S315200052500002904200D000BE03681C6814F0020FC2
S3152000526000D000BE90F804C001250CF01F02954026
S3152000527000220261C2604167DE6A4FFA8CFC26F08A
S315200052800104DC62DE6A4EF2001446F00806DE6295
S31520005290596119684FEA5C1C41F02001CEF20004E6
S315200052A01960826044F82C5070BC70474CF6682C0C
S315200052B0C2F2000C6045F0B406D04CF6EC14C2F2F3
S315200052C00004A04200D000BE0468256815F0020F35
S315200052D000D000BE049F002587620561C562C260BA
S315200052E0266840F2FF0726F0010626602668CFF6DC
S315200052F0007706EA070C4CF480560827266067607C
S315200053002668059F46F001062660A668436216F4C5
S3152000531080738767056781602ED122B937E0C1681F
S31520005320994208D98168CA5C013362610361A26827
S3152000533012F4807FF3D0216841F010022260E26AE5
S3152000534022F00101E162236843F02002226090F8F6
S3152000535004C001210CF01F039940A06A4FFA8CF279
S315200053604EF2001340F020005209CEF20003A06254
S3152000537043F82210F0BC7047216841F010032360E7
S31520005380002ADCD1E16A41F00103E362DFE722680B
S3152000539042F010032360F5E7036801625A639A6AB4
S315200053A042F010029A627047826103680022C2614D
S315200053B09A68416112F4807F1AD10269C1688A42D3
S315200053C00AD281688A5C5A6101694A1C02619A681C
S315200053D012F4807FF1D07047C26981698A4206D271
S315200053E041698A5C5A61C1694A1CC261EFE79B68C0
S315200053F0704700BF0368186840F001021A607047C2
S315200054000368186820F001021A607047036840F2AA
S31520005410FF021868CFF6007200EA020C4CEA01205F
S31520005420082218605A6070470368986800F00100E7
S31520005430704700BF036F10B5044673B102689168C8
S3152000544011F0400F01D007E0236F106998472268BA
S31520005450936813F0400FF7D010BD0268906810F0E3
S31520005460400FF9D1E36AA16A8B4203D3F4E7A06A1D
S315200054709842F1D91169626AD154E36A22680133EC
S31520005480E362906810F0400FF1D0E5E74CF6682310
S31520005490C2F20003984270B5044606D04CF6EC10D2
S315200054A0C2F20000844200D000BE23681A6A12F0BD
S315200054B0020F44D1186A10F0010F04D0A268002A06
S315200054C050D00120D8601A6A12F0100F3ED11B6A04
S315200054D013F0200F00D170BD2046FFF7ABFF2268E6
S315200054E000232361D06AE16A40F00800D062906808
S315200054F010F4807F19D1E06898420BD9A6685D1C0C
