:100000000000012089010000F9010000FB0100004F
:10001000FD010000FF0100000102000000000000DF
:1000200000000000000000000000000003020000CB
:1000300005020000000000000702000009020000A5
:100040000B0200000D0200006D4800008D4800000A
:100050001302000015020000170200001902000040
:100060001B0200001D0200003522000015220000C6
:1000700023020000250200002702000029020000E0
:100080002B0200002D0200002F020000512C000066
:100090003302000035020000370200003902000080
:1000A0003B0200003D0200003F0200004102000050
:1000B0004302000045020000470200004902000020
:1000C0004B0200004D0200004F02000051020000F0
:1000D00053020000550200005702000059020000C0
:1000E0005B0200005D0200005F0200006102000090
:1000F0006302000065020000670200006902000060
:100100006B0200006D0200006F020000710200002F
:1001100073020000750200007702000079020000FF
:100120007B0200007D0200007F02000081020000CF
:10013000830200008502000087020000890200009F
:100140008B0200008D0200008F020000910200006F
:10015000930200009502000097020000990200003F
:100160009B0200009D0200009F020000A10200000F
:10017000A3020000A5020000A7020000A9020000DF
:10018000AB020000AD020000494880474948002802
:100190000BD1494849494A4A884206D091421CBF7E
:1001A00050F8043B41F8043BF8D146484649474AD9
:1001B000884206D091421CBF50F8043B41F8043BF2
:1001C000F8D143484349444A914218BF41F8040BCF
:1001D000FAD1000000000000000000000000000054
:1001E000DFF8F8000FF2030E00474FF000004FF069
:1001F0000001DFF8ECF0FEE7FEE7FEE7FEE7FEE7D2
:10020000FEE7FEE7FEE7FEE7FEE7FEE7FEE7FEE7C6
:10021000FEE7FEE7FEE7FEE7FEE7FEE7FEE7FEE7B6
:10022000FEE7FEE7FEE7FEE7FEE7FEE7FEE7FEE7A6
:10023000FEE7FEE7FEE7FEE7FEE7FEE7FEE7FEE796
:10024000FEE7FEE7FEE7FEE7FEE7FEE7FEE7FEE786
:10025000FEE7FEE7FEE7FEE7FEE7FEE7FEE7FEE776
:10026000FEE7FEE7FEE7FEE7FEE7FEE7FEE7FEE766
:10027000FEE7FEE7FEE7FEE7FEE7FEE7FEE7FEE756
:10028000FEE7FEE7FEE7FEE7FEE7FEE7FEE7FEE746
:10029000FEE7FEE7FEE7FEE7FEE7FEE7FEE7FEE736
:1002A000FEE7FEE7FEE7FEE7FEE7FEE7FEE7704754
:1002B0002950000000000000F0020000F0020000E1
:1002C00070B5000070B50000000000203805002067
:1002D000000000003805002050090020A551000052
:1002E00039090000000000000000000000000000CC
:1002F00040F23853C2F200031A780AB9012018708C
:10030000704700BF40F20000C2F2000008B5036869
:100310002BB140F20003C0F2000303B1984708BDBF
:1003200070B483B000236D4600E0634600F00F0C0C
:10033000BCF1090FD4BF0CF1300C0CF1370C0009E3
:1003400005F803C00CBF0024012403F1010CBCF12B
:10035000070FCCBF002404F00104002CE5D1101ECF
:1003600018BF012090B12046EC180346013314F861
:1003700001696345ACBF002501259A4294BF002561
:1003800005F001050E541846002DEFD103B070BCE6
:10039000704700BF704700BFF0B51029A1B00F46ED
:1003A00006465FD8002950D0002417F0010F6D4693
:1003B00038D04AF68802335D8021C0F200026846D8
:1003C00004F0E0FF40F2D0700134C2F20000694650
:1003D00001F034F8A74238D9012C02D914F00F0FDC
:1003E00035D04AF68802335D8021C0F200026846AB
:1003F00004F0C8FF40F2D070C2F200000134694638
:1004000001F01CF8012CD4D914F00F0FD1D140F217
:10041000D0704AF67461C2F20000C0F2000101F02F
:100420000DF8C6E74AF688028021C0F20002337850
:10043000684604F0A7FF40F2D070C2F2000069469F
:10044000012400F0FBFFA742B3D821B0F0BD40F279
:10045000D0704AF67461C2F20000C0F2000100F0F0
:10046000EDFFBEE740F2D0704AF67461C2F20000C0
:10047000C0F2000100F0E2FF96E700BF2DE9F04571
:100480000746C1B00C4600293FD000F1FF380023D9
:1004900011F4807F46466D463AD14FF48072B7180A
:1004A0003046BE18FF2C694603EB020A23D904F03C
:1004B000C3FA68464FF48071FFF76EFFB4F580749D
:1004C00069464FF4807238461FD004F0B5FA68468A
:1004D0004FF48071FFF760FFB4F5807415D04FF4CE
:1004E0008072B7180AF580733046BE18FF2C694633
:1004F00003EB020ADBD808EB03006946224604F04E
:100500009BFA68462146FFF747FF41B0BDE8F085FA
:1005100069464FF48072404604F08EFA68464FF404
:100520008071FFF739FFB4F5807407F1FF0618BF3B
:100530004FF48073B1D1E8E72DE9F04FADF5806D50
:1005400083B00F4600297AD046F24C4A00F1FF39B9
:10055000C0F2010A4FF020454FF0000840F2FF3B87
:1005600002AC5F4594BF3E464FF4806608EB09003D
:100570002146324604F060FA711E012220782B4693
:100580001140964203F8010B13D929B1A05C013345
:10059000A854022296420CD914F802E0511C05F826
:1005A00002E014F801C04A1C0233964205F801C06B
:1005B000F2D8574504D0BF1B41D0B0441D46D0E708
:1005C00040F2D0704AF69001C0F20001C2F2000081
:1005D000019300F033FF80212046FFF7DDFE40F25B
:1005E000D0704AF67461C2F20000C0F2000100F05F
:1005F00025FF40F2D0704AF67461C2F20000C0F2EA
:10060000000100F01BFF40F2D0704AF6C801C2F2B0
:100610000000C0F2000100F011FF019B8021981B37
:10062000FFF7BAFE40F2D0704AF67461C2F20000E1
:10063000C0F2000100F002FFBF1B019BBDD140F2E0
:10064000D0704AF6FC01C2F20000C0F2000100F0D6
:10065000F5FE03B00DF5806DBDE8F08F10B540F2EA
:10066000D07082B04AF6141102AC0023C2F200002E
:10067000C0F2000104F8013D00F0E0FE40F2D0704D
:100680000122C2F20000214600F086FF10F0FF0FA9
:10069000F4D002B010BD00BF10B540F2D07082B0EF
:1006A0004AF634110023C2F20000C0F2000102AC8D
:1006B00004F8013D00F0C2FE40F2D0704AF67C1111
:1006C000C2F20000C0F2000100F0B8FE40F2D070AB
:1006D0004AF69C11C2F20000C0F2000100F0AEFE2A
:1006E00040F2D0704AF6C011C2F20000C0F2000120
:1006F00000F0A4FE40F2D0704AF6E411C2F200000D
:10070000C0F2000100F09AFE40F2D0704AF60421D7
:10071000C2F20000C0F2000100F090FE40F2D07082
:100720004AF62021C2F20000C0F2000100F086FE6D
:1007300040F2D0704AF62C21C2F20000C0F2000153
:1007400000F07CFE40F2D0704AF63821C2F2000080
:10075000C0F2000100F072FE40F2D0704AF658215B
:10076000C2F20000C0F2000100F068FE40F2D0705A
:100770000122C2F20000214600F00EFF10F0FF0F30
:10078000F4D09DF80700A0F13101CAB2062A9EBF3D
:1007900040F20402C2F20002107001D802B010BD93
:1007A00040F2D0704AF67021C2F20000C0F200019F
:1007B00000F044FEF2E700BF08B504F035FC40F25B
:1007C000D0704AF69821C2F20000C0F2000100F099
:1007D00035FE46F24C41C0F201014FF48010FFF7A4
:1007E000ABFE40F2D0704AF6B021C2F20000C0F277
:1007F000000100F023FE40F2D0704AF6D421C2F28C
:100800000000C0F2000100F019FE40F2D070C2F208
:100810000000012100F030FF4FF02040036883F317
:10082000088848F20801C4F20301012204200A608A
:1008300003689847FEE700BF70B540F2D0748EB0F1
:10084000C2F200044AF61C310546C0F200012046FF
:1008500001AE00F0F3FD314608222846FFF760FDA7
:1008600031460246204600F093FD40F20403C2F2F6
:10087000000300221A725D600EB070BD00B5002347
:1008800083B0E0288DF806308DF8073034D0E128A9
:1008900001D003B000BD40F2D070C2F200000322CC
:1008A0004FF4E13101F092FF40F2D0704AF6BC31D2
:1008B000C2F20000C0F2000100F0C0FD042004F00C
:1008C0000DFA04F08BF80DF107000DF1060104F0AC
:1008D000E5F89DF80700EF2803D19DF806104029A0
:1008E0001FD040F2D0704AF67831C2F20000C0F258
:1008F000000100F0A3FDCCE740F2D070C2F200008E
:1009000003224FF4E13101F061FF40F2D0704AF66A
:100910003031C2F20000C0F2000100F08FFD05206E
:10092000CDE740F2D0704AF69831C2F20000C0F232
:10093000000100F083FDACE72DE9F04F0F2099B0E6
:1009400000248DF85C0012948DF85F408DF85E40B5
:1009500004F06AFB48F20003C4F2030340F2D070D3
:100960000322DC66C2F200004FF4E13101F02EFFF9
:1009700040F23C5640F2D0704AF2D061C0F2000121
:10098000C2F20000C2F2000600F058FD06F58072C7
:100990002146671C345511557C1C0025B4F5807F19
:1009A000F755D555F5D148F20001C4F20301D1F84D
:1009B000982040F2D0704AF6F831C2F20000C0F23E
:1009C00000010DF140091092119500F037FD4846E5
:1009D0000821FFF7E1FC40F2D0704AF67461C2F2E0
:1009E0000000C0F2000100F029FD40F2D0704AF68C
:1009F0002841C2F20000C0F2000100F01FFD40F2E9
:100A0000D0704AF66041C2F20000C0F2000100F06E
:100A100015FD40F2D077C2F200072C4640F2D070AC
:100A20004AF69841C2F20000C0F2000100F006FD53
:100A3000ACB939680B7D13F0010F04BF44F64033A5
:100A4000C0F24C0305D0DBE00C7D14F0010F40F048
:100A5000D780013B0CBF00240124002CF4D10135C8
:100A60000A2DDBD1002C00F0B38340F2D0704AF69F
:100A7000BC41C2F20000C0F2000100F0DFFC012422
:100A8000042004F02BF903F0A9FF0DF15F000DF134
:100A90005E0104F003F89DF85F50EF2D05D19DF83D
:100AA0005E80B8F1400F00F00A84129F40F2D070CF
:100AB0004AF678317B1CC2F20000C0F200011293AA
:100AC00000F0BCFC40F67D00C0F200000DF1580BB8
:100AD00003F074FB584603F01DFA0546002840F069
:100AE000E58140F2D0704AF6DC41C0F20001C2F26A
:100AF000000000F0A3FC58460221FFF74DFC40F235
:100B0000D0704AF67461C2F20000C0F2000100F039
:100B100095FC40F27C100222C0F2200014A903F0E0
:100B20008BFF40F2D0704AF65451C0F20001C2F27D
:100B3000000000F083FC14A80221FFF72DFC40F216
:100B4000D0704AF67461C2F20000C0F2000100F0F9
:100B500075FC0DF14C0A40F213000222C0F2700045
:100B6000514603F069FF40F2D0704AF68451C0F25A
:100B70000001C2F2000000F061FC50460221FFF7C4
:100B80000BFC40F2D0704AF67461C2F20000C0F271
:100B9000000100F053FC002C00F0A08140F204049E
:100BA0004EF60C5240F20400C2F20004CEF20002F3
:100BB000C0F2FA50009201900DF15C080DF1540A58
:100BC0002746FFF769FD40F67D00C0F2000003F004
:100BD000F5FA21783139062900F23F8101A252F855
:100BE00021F000BF3D0E0000250E0000B50D0000F5
:100BF0005D0D0000050C0000750E0000C30B000029
:100C000001242CE740F2D0704BF2BC01C2F200008C
:100C1000C0F2000100F012FC012541F2ED2140F686
:100C200039024FF40013C0F20001C0F200020220AA
:100C30002572C6F8003203F08BF9217A0029FCD125
:100C40007B6840F2140041460122C0F270008DF82A
:100C50005C3003F0A5FF40F67D00C0F2000003F019
:100C6000ADFA504603F056F90546002840F00681DB
:100C700040F2D0704AF64C71C0F20001C2F200009E
:100C800000F0DCFB50460221FFF786FB40F2D070FB
:100C90004AF67461C2F20000C0F2000100F0CEFB1F
:100CA00048F200050222C4F2030551464FF4E00069
:100CB00003F076FFD5F8983040F2D0704AF6F8315C
:100CC000C0F20001C2F20000119300F0B7FB4846E9
:100CD0000821FFF761FB40F2D0704AF67461C2F25E
:100CE0000000C0F2000100F0A9FB40F2D0704AF60B
:100CF0007C71C2F20000C0F2000100F09FFB109A6C
:100D000040F2D070C5F89820D5F898300322C2F28E
:100D100000004FF4E131119301F058FD40F2D07022
:100D20004BF2EC01C0F20001C2F2000000F086FBC1
:100D300048460821FFF730FB40F2D0704AF6746154
:100D4000C0F20001C2F2000000F078FB042003F0C2
:100D5000C5FF03F043FEFFF781FC32E740F2D0709D
:100D60004BF29001C2F20000C0F2000100F066FBFD
:100D70004FF40015012341F2ED2140F639021846E7
:100D8000C0F20001C0F20002C6F80052237203F064
:100D9000DFF8227A002AFCD140F212007B68C0F210
:100DA0007000414601228DF85C3003F0F9FEFFF738
:100DB00055FC06E74FF4E00003F0ACFD40F2020002
:100DC000C0F270005946022203F0EAFE40F204002D
:100DD0000222C0F2700014A903F0E2FE40F2D070CB
:100DE0004BF26001C2F20000C0F2000100F026FBED
:100DF000012541F2ED2140F639024FF40013C0F213
:100E00000001C0F2000200202572C6F8003203F093
:100E10009FF8207A0028FCD140F210007B68C0F2D5
:100E20007000BEE740F2D070C2F20000012100F075
:100E300023FCFFF7C1FCFFF711FCC2E640F2D070C3
:100E40000121C2F2000000F017FC4FF400106421F1
:100E5000FFF714FBFFF702FCB3E640F2D0704BF251
:100E60002011C2F20000C0F2000100F0E7FAFFF723
:100E7000F5FBA6E6019800990860A2E640F2D07062
:100E80004AF60851C2F20000C0F2000100F0D6FAA2
:100E90007F2D7FF405AF40F2D0704AF63051C2F298
:100EA0000000C0F2000100F0C9FAF9E640F2D0708B
:100EB0004AF60851C2F20000C0F2000100F0BEFA8A
:100EC0007F2D7FF426AE40F2D0704AF63051C2F248
:100ED0000000C0F2000100F0B1FA1AE69DF858C017
:100EE0009DF850E0F44500F0638140F2D0704AF67E
:100EF0000C61C2F20000C0F2000100F09FFA9DF800
:100F00004C40002C40F059814FF4E00003F002FD0A
:100F100040F20200C0F270005946022203F040FE87
:100F200040F20400022214A9C0F2700003F038FE5F
:100F300040F67D00C0F2000003F040F940F2D070AE
:100F40004AF67861C2F20000C0F2000140F20404E7
:100F500000F074FAC2F2000441F2ED2140F63902C9
:100F600001234FF40015C0F20001C0F2000200207E
:100F70002372C6F8005202F0EBFF207A40F2040719
:100F8000C2F200070028F8D17A6818AD05F8042DE0
:100F900040F21000C0F270002946012203F000FE6A
:100FA0007868002840F01F8140F2D0704AF69061C6
:100FB000C2F20000C0F2000100F040FA40F2D0702E
:100FC0004AF6C461C0F20001C2F2000000F036FA35
:100FD00040F67D00C0F2000003F0F0F8012341F27A
:100FE000ED2140F639023B724FF400171846C0F26B
:100FF0000001C0F20002C6F8007202F0A9FF217AD7
:1010000040F20407C2F200070029F8D17B6840F2E1
:101010001200C0F27000294601228DF85C3003F006
:10102000BFFD7868002840F0048140F2D0704AF695
:10103000F061C0F20001C2F2000000F0FFF940F6DA
:101040007D00C0F2000003F0B9F8012341F2ED2168
:1010500040F639023B724FF40017C0F20001C0F2B3
:1010600000020220C6F8007202F072FF207A40F2FD
:101070000406C2F200060028F8D1746840F2140099
:10108000C0F27000294601228DF85C4003F088FD13
:101090007068002840F0FC8040F2D0704AF6207161
:1010A000C0F20001C2F2000000F0C8F940F67D0075
:1010B000C0F2000015AD03F081F8284602F02AFFC7
:1010C0000446002840F0CC8040F2D0704AF64C71C3
:1010D000C0F20001C2F2000000F0B0F9284602217F
:1010E000FFF75AF940F2D0704AF67461C2F200007C
:1010F000C0F2000100F0A2F948F20007C4F20307B1
:10110000294602224FF4E00003F04AFDD7F8982068
:1011100040F2D0704AF6F831C0F20001C2F200008D
:10112000119200F08BF948460821FFF735F940F29B
:10113000D0704AF67461C2F20000C0F2000100F003
:101140007DF940F2D0704AF67C71C2F20000C0F224
:10115000000100F073F9109D40F2D070C7F898506C
:10116000D7F898600322C2F200004FF4E1311196E3
:1011700001F02CFB40F2D0704AF6B071C0F20001D1
:10118000C2F2000000F05AF948460821FFF704F9BE
:1011900040F2D0704AF67461C0F20001C2F2000061
:1011A00000F04CF9042003F099FD03F017FC3DE03A
:1011B0009DF84C10002900F08E8040F2D0704AF665
:1011C0003C61C2F20000C0F2000100F037F99BE67A
:1011D00040F2D0704AF69C41C2F20000C0F2000119
:1011E00000F02CF94CE40DF10C0802224146FFF707
:1011F00097F84BF23401054640F2D070C2F200007D
:10120000C0F2000100F01AF940F2D070C2F2000002
:1012100041462A4600F0BCF840F2D0704AF634212C
:10122000C2F20000C0F2000100F008F9FFF7C4FAB2
:10123000FEE70DF10C0B59460222FFF771F84BF255
:101240000C01054640F2D070C2F20000C0F200016D
:1012500000F0F4F840F2D0705946C2F20000D8E72E
:1012600040F2D0704AF60851C2F20000C0F200010C
:1012700000F0E4F87F2C7FF43FAF40F2D0704AF6E4
:101280003051C2F20000C0F2000100F0D7F833E79D
:101290000DF10C0949460222FFF742F84AF6E471C3
:1012A000054640F2D070C2F20000C0F2000100F02A
:1012B000C5F840F2D0704946C2F20000A9E740F2FA
:1012C000D0704AF69831C2F20000C0F2000100F07E
:1012D000B5F8FFF7F7BB40F2D0704AF6B851C2F24A
:1012E0000000C0F2000100F0A9F89FE770B540F2DD
:1012F0003C54C2F20004D4F8003204F5807506466E
:101300002946581E4FF4807203F096FBD4F8003241
:10131000B3F5001F21D048F21F5EC5F2EB1E8EFB15
:10132000031CD917C1EB6C304FF4C84101FB1032DC
:101330005AB940F2D0704AF69841C2F20000C0F2A9
:10134000000100F07BF8D4F8003203F58073C4F894
:10135000003235604FF4807070BD40F2D0704BF2B7
:101360003C11C0F20001C2F2000000F067F828460C
:101370008021FFF711F840F2D0704AF67461C2F292
:101380000000C0F2000100F059F8D4F80032C2E7C2
:1013900040F61003C2F2000398422DE9F00508D090
:1013A00040F2D07CC2F2000C604502D0BDE8F005EE
:1013B00070470B1E18BF0123002A0CBF002303F047
:1013C0000103002BF2D090F80D80D0F800A000258A
:1013D0009AF814C048EA0C081CF0200F80F80D8021
:1013E00023D00F2A24D910274E5D0468012307F16A
:1013F000FF3C26700CEA030605EB030C4D19BB42BB
:1014000011D236B1EE5C0223BB4226700CF1010C06
:1014100009D2EE5C01332670EE5C0133BB422670CC
:101420000CF1020CF5D36546D21A002AD0D1BDE7E3
:101430000AB11746D8E71346D21AF6E72DE9F005A8
:1014400040F61003C2F20003984282B012D040F27C
:10145000D072C2F2000290420CD041F2883001906A
:10146000019B5A1E019201990029F9D102B0BDE8F1
:10147000F00570470029F0D00D78002DEDD0427BAB
:1014800004684FF0000C237D1A4313F0200FFAD0AC
:10149000427325B96346002DDFD09C46F3E7D0F8B0
:1014A00000A0002601EB0C0801368AF8005018F85D
:1014B000065006EB0C032F1E18BF01270F2E8CBF02
:1014C000002707F00107002FE5D0EDE70B1E18BF3E
:1014D0000123002A0CBF002303F001032DE9F005CE
:1014E0005BB140F6100CC2F2000C604508D040F22F
:1014F000D073C2F20003984202D0BDE8F0057047F5
:1015000090F804A04FF001080AF01F0708FA07F747
:1015100005684FFA8AF605F1040C2CF07F440CF0B4
:10152000704303F1007A760924F470054EF200133B
:1015300042F255244261CEF200030AF1040CC0F2DB
:1015400000046D0106F1600A00228261016143F826
:101550002A7044624CF8058043F82670CDE700BF3E
:1015600040F61003C2F20003984207D040F2D07157
:10157000C2F20001884201D0002070470368417B1D
:101580001B7D426943EA010C80F80DC0002AF3D1AB
:10159000C3F38010704700BF40F61003C2F200038F
:1015A000984270B409D040F2D07CC2F2000C604581
:1015B00003D00023184670BC70470B1E18BF0123D0
:1015C000002A0CBF002303F00103002BF1D00468B4
:1015D00090F80DC0237D43EA0C0C13F0010F80F846
:1015E0000DC0E6D000232578CD540468467B94F8DE
:1015F00014C001334CEA06069A4294BF00250CF051
:1016000001054673002DEED1D4E700BF40F610036C
:10161000C2F20003984230B407D040F2D072C2F256
:101620000002904201D030BC70474FF6FF7C61450C
:10163000F9D090F804C001240CF01F0294404FFA36
:101640008CF34FEA531C4EF200130268CEF20003F3
:101650000CF1600543F82540157901F00F0045EACB
:101660000000107192F8240040EA1111C9B282F80A
:10167000241043F82C40D6E740F61003C2F20003D2
:10168000984210B407D040F2D072C2F200029042E9
:1016900001D010BC7047036801F00F041A7981F47F
:1016A0007F4C22EA04021A7193F8242042EA1C2299
:1016B00083F8242002794FF0010C02F01F000CFA8D
:1016C00000F052B252094EF20013CEF2000302F1C2
:1016D000600C0F2943F82C00DBD1203243F82200A4
:1016E000D7E700BF40F61003C2F20003984230B4BF
:1016F00007D040F2D07CC2F2000C604501D030BC73
:1017000070470B1E18BF0123C02A8CBF002303F0B3
:101710000103002BF3D00568016295F808C001248D
:101720000CF03F031A432A72027905F1040C02F00F
:101730001F0014FA00F02CF07F4351B223F470051F
:1017400049094EF200130CF0704CCEF200036A010E
:101750000CF1007C01F1600543F825004CF80240D3
:1017600043F82100CBE700BF40F61003C2F20003AC
:1017700098420CD040F2D07CC2F2000C604514BFFD
:1017800000220122052998BF42F0010262B1052919
:101790000AD8DFE801F00A19282E2803036893F815
:1017A00010C04CF04000187470470368103323F0E9
:1017B0007F4C03F0704101F100732CF47002103380
:1017C00050010021195070470268103222F07F4CFE
:1017D00002F070432CF4700003F1007142011031EB
:1017E0000120885070470368187C00F0F9011974D3
:1017F000704701680A7C42F0200C81F810C07047E5
:1018000040F61003C2F200039842F0B407D040F251
:10181000D072C2F20002904201D0F0BC70470029A1
:10182000FBD090F804C001260CF01F0516FA05F550
:1018300003684FFA8CF41F1D27F07F4307F07042B6
:10184000640923F4700702F100724EF20013CEF225
:1018500000034FEA471C083204F1600743F82750A1
:10186000C16142F80C6043F82450D6E740F61003FB
:10187000C2F2000398422DE9F00108D040F2D07284
:10188000C2F20002904202D0BDE8F0017047002988
:10189000FAD090F804C001270CF01F0617FA06F6DC
:1018A00002684FFA8CF5141D04F0704324F07F4851
:1018B00028F470046D0903F100724EF20013CEF2A9
:1018C00000034FEA441C0432002405F1600844611F
:1018D000416243F82860046142F80C7043F82560C7
:1018E000D2E700BF40F61003C2F200039842F0B402
:1018F00007D040F2D072C2F20002904201D0F0BC98
:1019000070470029FBD090F804C001260CF01F0599
:1019100016FA05F503684FFA8CF41F1D27F07F4374
:1019200007F07042640923F4700702F100724EF26E
:101930000013CEF200034FEA471C0C3204F160079B
:1019400043F82750816242F80C6043F82450D6E7F0
:1019500040F61003C2F20003984210B408D040F2DF
:10196000D07CC2F2000C604502D0002010BC704751
:101970000B1E18BF0123002A0CBF002303F0010334
:10198000002BF2D00368447B93F814C04CEA0404A3
:101990001CF0200F4473E8D00F2A88BF1022501E7D
:1019A00091F800C000F001040120824283F800C0D9
:1019B000DCD934B191F801C00220824283F800C022
:1019C000D4D911F800C0013083F800C011F800C06C
:1019D0000130824283F800C0F3D8C7E740F6100315
:1019E000C2F20003984207D040F2D071C2F2000167
:1019F000884201D0FF2070470268437B117D00229E
:101A000041EA030C42730CF09E00704740F610034D
:101A1000C2F20003984207D040F2D071C2F2000136
:101A2000884201D0FF2070470268107E704700BFD7
:101A300040F61003C2F20003984207D040F2D07182
:101A4000C2F20001884201D0002070470368417B48
:101A500093F814C04CEA010242730CF06000704726
:101A600040F61003C2F20003984206D040F2D07153
:101A7000C2F20001884200D0704702680C3202F0C6
:101A8000704022F07F4C00F100732CF47001183389
:101A90004A0101209850704740F61003C2F200033B
:101AA000984206D040F2D071C2F20001884200D0C4
:101AB000704702680C3202F0704022F07F4C00F157
:101AC00000732CF4700118334A01002098507047BD
:101AD00040F61003C2F200039842F0B407D040F27F
:101AE000D072C2F20002904201D0F0BC70470029CF
:101AF000FBD090F804C001260CF01F0516FA05F57E
:101B000007684FFA8CF4243727F07F4307F07042C0
:101B1000640923F4700702F100724EF20013CEF252
:101B200000034FEA471C083204F1600743F82750CE
:101B3000416342F80C6043F82450D6E740F61003A6
:101B4000C2F200039842F0B407D040F2D072C2F261
:101B50000002904201D0F0BC70470029FBD090F801
:101B600004C001260CF01F0516FA05F507684FFAA8
:101B70008CF4243727F07F4307F07042640923F484
:101B8000700702F100724EF20013CEF200034FEA2A
:101B9000471C0C3204F1600743F82750816342F878
:101BA0000C6043F82450D6E740F61003C2F200035D
:101BB0009842F0B407D040F2D072C2F200029042D4
:101BC00001D0F0BC70470029FBD090F804C001267A
:101BD0000CF01F0516FA05F507684FFA8CF4243748
:101BE00027F07F4307F07042640923F4700702F185
:101BF00000724EF20013CEF200034FEA471C10327F
:101C000004F1600743F82750C16342F80C6043F8C1
:101C10002450D6E740F61003C2F200039842F0B415
:101C200007D040F2D072C2F20002904201D0F0BC64
:101C300070470029FBD00279012602F01F0516FA31
:101C400005F5076854B2243707F0704C27F07F433E
:101C500023F4700764090CF100724EF20013CEF207
:101C600000034FEA471C043204F1600743F8275091
:101C7000016342F80C6043F82450D8E740F61003A3
:101C8000C2F200039842F0B407D040F2D072C2F220
:101C90000002904201D0F0BC70470029FBD00279CD
:101CA000012502F01F0415FA04F406684FFA82FCBD
:101CB000243626F07F4323F470074FEA5C1C4EF273
:101CC000001306F07046CEF200037A0106F10076AA
:101CD0000CF1600743F82740C162B55043F82C402F
:101CE000D9E700BF40F61003C2F20003984206D0C5
:101CF00040F2D071C2F20001884200D07047026801
:101D0000383202F0704022F07F4C00F100732CF466
:101D100070010C334A0101209850704740F61003BF
:101D2000C2F20003984206D040F2D071C2F2000124
:101D3000884200D070470268383202F0704022F0CA
:101D40007F4C00F100732CF470010C334A01002029
:101D50009850704740F61003C2F20003984206D034
:101D600040F2D072C2F20002904200D070470129C6
:101D7000FCD871B10168343121F07F4C2CF4700033
:101D800001F0704202F1007C430101214CF8031084
:101D9000ECE70268343222F07F4020F4700302F056
:101DA000704C0CF100705B01C150704740F610039D
:101DB000C2F20003984206D040F2D072C2F2000292
:101DC000904200D070470129FCD871B103683433C8
:101DD00003F0704023F07F4C00F100712CF470028E
:101DE0000B1D500101211950ECE70268343202F05A
:101DF000704322F07F4C03F100702CF47002031D3D
:101E000050011950704700BF40F61003C2F20003A2
:101E1000984206D040F2D073C2F20003984200D03C
:101E2000704707299CBF036883F84410704700BFC0
:101E300040F61003C2F20003984206D040F2D0717F
:101E4000C2F20001884200D070470368383303F0C3
:101E5000704223F07F4C02F100702CF47001031DDE
:101E60004A0101209850704740F61003C2F2000367
:101E7000984206D040F2D071C2F20001884200D0F0
:101E800070470368383303F0704223F07F4C02F14F
:101E900000702CF47001031D4A0100209850704717
:101EA00040F61003C2F20003984206D040F2D0710F
:101EB000C2F20001884200D070470268383202F056
:101EC000704022F07F4C00F100732CF47001083355
:101ED0004A0101209850704740F61003C2F20003F7
:101EE000984206D040F2D071C2F20001884200D080
:101EF00070470268383202F0704022F07F4C00F1E7
:101F000000732CF4700108334A0100209850704788
:101F100040F61003C2F20003984206D040F2D0729D
:101F2000C2F20002904200D07047006800F1300217
:101F300002F0704322F07F4C03F100732CF4700226
:101F400080F84C101833520101219950704700BF9E
:101F500040F61003C2F20003984206D040F2D0715E
:101F6000C2F20001884200D070470268303202F0AD
:101F7000704022F07F4C00F100732CF47001183394
:101F80004A0100209850704740F61003C2F2000347
:101F9000984206D040F2D072C2F20002904200D0C5
:101FA0007047006800F1300202F0704322F07F4C6D
:101FB00003F100732CF4700280F8481014335201BE
:101FC00001219950704700BF40F61003C2F2000390
:101FD000984206D040F2D071C2F20001884200D08F
:101FE00070470268303202F0704022F07F4C00F1FE
:101FF00000732CF4700114334A010020985070478C
:1020000040F61003C2F20003984206D040F2D072AC
:10201000C2F20002904200D07047036883F850106B
:10202000704700BF40F61003C2F20003984206D08A
:1020300040F2D072C2F20002904200D070470129F3
:10204000FCD871B10268083222F07F4C02F0704374
:102050002CF4700103F100704A010C300121815011
:10206000ECE70368083323F07F4C03F0704000F185
:1020700000732CF470020C3350011950704700BFEC
:1020800040F61003C2F20003984206D040F2D0722C
:10209000C2F20002904200D070470429FCD80368C5
:1020A00093F8302002F0F80C83F830C093F8300039
:1020B000014383F83010704740F61003C2F200036A
:1020C000984210B5044606D040F2D070C2F200002B
:1020D000844200D010BD2268117A01F00F0CBCF1CF
:1020E0000C0FF7D801A151F82CF000BF3D210000E2
:1020F000D520000035210000452100002D210000E1
:10210000D520000021210000D5200000D5200000AE
:10211000D5200000D5200000D52000002D21000092
:10212000E369002BD6D02046984710BD236A002BC8
:10213000F9D1CFE7636A002BF5D1CBE7A36A002B77
:10214000F1D1C7E7283222F07F4020F4700302F07B
:102150007041580101F1007C5CF8003013F0FF0F72
:1021600005D0E36A1BB1204698472268283202F066
:10217000704022F07F4C00F100732CF47001181DA8
:102180004901435813F0FF0F05D0236B1BB12046C4
:1021900098472268283202F0704322F07F4C03F106
:1021A00000702CF4700108304901435813F0FF0F00
:1021B00005D0636B1BB1204698472268283202F095
:1021C000704322F07F4C2CF4700003F100730C3349
:1021D0004101585810F0FF0F05D0A36B1BB12046EA
:1021E00098472268283222F07F4C02F0704101F1BA
:1021F00000722CF4700310325801115811F0FF0FC7
:102200003FF468AFE36B002B3FF464AF2046984780
:1022100060E700BF684620F007018D4601B540F237
:10222000D070C2F20000FFF747FFBDE801408546CD
:10223000704700BF684620F007018D4601B540F6A3
:102240001000C2F20000FFF737FFBDE801408546ED
:10225000704700BF40F61003C2F20003984270B40A
:1022600007D040F2D071C2F20001884201D070BCA8
:1022700070470469002CFAD04369002BF7D001683D
:1022800090F80DC00A7D42EA0C0C12F0200F80F885
:102290000DC0826929D09D1A0F2D38D91025A41898
:1022A00026786B1E0E7003F00106012301329D4259
:1022B000826119D946B194F801C0022301329D42CE
:1022C00081F800C082610FD914F803C0013281F88F
:1022D00000C00133826114F803C0013301329D4212
:1022E00081F800C08261EFD843699A42BFD1026889
:1022F0000021131D23F07F4C03F0704202F10073A4
:102300002CF470020433520199504161AFE7002D63
:10231000C5D1EAE72DE9F04F40F610038FB0C2F2C5
:1023200000030B9248F200029842C4F203020446F2
:102330000D91906C4EF2001100F0298140F48077ED
:10234000CEF200014FF400669764C1F88061956C8D
:1023500040F2000125F48070C4F2010190640B2268
:102360002271216000220D460A7101F1100605F864
:10237000082F01F1380A2AF07F4B01F1340925F0CA
:102380007F4726F07F4805F0704506F070460AF05A
:10239000704ACDF810A0069529F07F4006F100752F
:1023A0000390019509F07049049DCDF81C90DDF86B
:1023B0000C9005F1007529F4700A0A952BF4700948
:1023C000079DDDF818B0CDF814900BF1007905F1F8
:1023D000007B049D01F1300C2CF07F4005F100756D
:1023E0000CF0704CCDF80CA004950CF100750CF1BC
:1023F000007AAC46039DCDF824A06D010395059DA0
:1024000028F470086D010595069DCA4605F1007512
:102410000695019D4FEA481814350195079D27F44C
:10242000700705F100750795049D7F01043504953B
:10243000654614350895099DCDF830801C35099501
:102440000A9D4FF001080C350AF1080A09F1040948
:102450000A9506F1007649F807800C9D4AF8078036
:10246000DDF818A010364AF807807251DDF80CA08C
:10247000019E0BF1040B72514BF80A20DDF81CB0E1
:10248000059D4BF80A20049EDDF820A020F4700082
:1024900040010CF1180C7251DDF824B04AF800200C
:1024A0004CF80020DDF828C09C424BF800204CF886
:1024B000052081F8442081F8482081F84C2079D00B
:1024C00040F2D073C2F200039C4215D00B9D002055
:1024D0000D7360730D9E6061A66025732061A0611D
:1024E00020626062E061A062E06220636063A063DA
:1024F000E0630FB0BDE8F08F0D9FA76002F004FC11
:1025000040F22001C2F200010A680D9ED700B7FB1D
:10251000F6F2D3095708B3F5803F28BF2168D5D21A
:10252000012B216850D901F10C0020F07F4C00F004
:10253000704606F100702CF4700A4FEA4A1E0D46F0
:102540005FFA83F8A7EB83171C300126C2F3C73A62
:1025500040F80E60A7EBC31381F804A005F8308B98
:102560009A1825F07F4305F0704523F47008A2EB1C
:10257000470705F100751C354FEA4818FFB20023E4
:1025800040F80E3045F8086081F83C709EE740F056
:102590008007CEF200014FF480669764C1F8806135
:1025A000956C4FF0804125F0800090640A222271E2
:1025B0002160D7E60D9AA26002F0A6FB40F21C0152
:1025C000C2F200010A68A0E701F10C0C2CF07F4E6A
:1025D0000CF070422EF4700502F100724FEA451EB5
:1025E00008460025DBB21C32012642F80E600D7150
:1025F00000F8303B20F07F4C00F0704000F1007696
:102600002CF470031C365B0142F80E50F5505DE768
:1026100070B505461446FFF77DFE2D6804F00704EB
:1026200005F1300005F1340320F07F4623F07F4CA4
:1026300000F0704203F0704126F4700001F1007365
:102640002CF4700602F1007271010C320026400178
:102650000833072C16505E500FD1383525F07F4CCB
:1026600005F0704E2CF470000EF100734201012150
:102670000C330EF10075A950995070BD2DE9F0474B
:1026800004461E469DF820509DF82470FFF742FE38
:10269000226802F1300802F1340328F07F4A08F082
:1026A000704123F07F4903F0704801F100702AF473
:1026B000700429F4700C08F100714FEA441A0C30D0
:1026C00008314FEA4C1C01244FF0000940F80A90F1
:1026D00041F80C40002E46D108F1007E0EF10C08A6
:1026E00048F80C602DBB03F0704E23F07F4C0EF1C8
:1026F00000712CF47000103140010D503FB323F0F5
:102700007F4C03F0704E2CF470000EF10073410109
:10271000143301205850383222F07F4E2EF47000CE
:1027200002F0704C0CF1007243010021D150BDE861
:10273000F08703F0704E23F07F4C2CF470040EF100
:1027400000716001103101240C50002FD7D123F00B
:102750007F4C03F0704E0EF100732CF470011433B3
:1027600048011F50D7E708F1007000F10C0848F845
:102770000C40B7E7F8B50746FFF7CCFD3D684FF6CC
:10278000FF7305F1300405F1340CC0F20F0305F1BD
:10279000380004F070410CF0704200EA030500F0CC
:1027A00070471C400CEA030601F1007102F100724F
:1027B0007301002007F100760C31640108326D01CD
:1027C00001270F51D0507051F8BD00BFF8B5044635
:1027D000FFF7A0FD22684FF6FF7302F1340002F10B
:1027E0003005C0F20F0305F07047383200F0704139
:1027F00002EA030607F1007C1D4000EA030702F02D
:10280000704201F1007142F255207B010CF10C0C79
:1028100002F100776D01002208317601C0F200005C
:102820004CF805206062CA50BA51F8BDF0B440F2CD
:1028300044734EF2001546F20004C2F20003002277
:10284000C4F20104CEF200054FF40026C5F8806002
:10285000A260C5F880615A7183F824209A811A71A8
:102860005A61DA832768186027F0200727602068FC
:10287000996140F010012160A0681A6220F0010106
:10288000A160A0689A6040F00201A1601A612E6008
:102890009A83F0BC704700BF10B540F24474C2F296
:1028A0000004236A2BB10146A069984700232371D5
:1028B000236210BD08B540F24473C2F200031A79D6
:1028C00002B908BDB3F81EC01FFA8CF0FFF7E4FF91
:1028D00046F20003C4F2010318681A4640F00101F1
:1028E0001960116811F0010FFBD108BD2DE9F84501
:1028F0004EF2001646F200050024C4F20105CEF2A5
:1029000000064FF40027C6F88070AC60C6F88071EE
:102910009846064617468A46FFF7CCFF40F24472B7
:10292000C2F2000201215671117194815461D48365
:1029300051792B68089823F004039761A2F81C8052
:10294000946210622B60946014616C6846F200031C
:1029500014F0010FC4F20103F7D0996119681C4605
:1029600041F004001860606846F2000310F0010FA7
:10297000C4F20103F7D0C3F814A0196821F00400D1
:102980000321186082F8241098684EF2001240F07B
:1029900002019960CEF200024FF400231360BDE8FB
:1029A000F88500BF2DE9F0454EF2001646F200040E
:1029B0000025C4F20104CEF200064FF40027C6F849
:1029C000807083B0A560C6F88071904606460F46B9
:1029D0009A46FFF76FFF40F24471C2F200010123F3
:1029E0000B7196F800C0C1F8188081F805C08F817E
:1029F0004D61CD8348792268A1F81CA022F0040320
:102A00000A9A23608A620B9A8E600A620D6162687C
:102A100046F2000312F0010FC4F20103F7D09861EF
:102A2000186820F004021A60586800F00102019250
:102A30000198002856D0B7F1010C53D070781A468F
:102A400018615B680CF1FF3E03F0010401940198EA
:102A50000EF001040123E8B1BCF1010F1AD924B131
:102A6000B07802230EE09C4514D9F4186078013345
:102A700010615068F41800F001000190019848B10D
:102A8000607801331061506800F0010001900198F6
:102A90000028E8D101339F4218D805224FF0000EDC
:102AA00081F82420A1F80CE046F20003C4F20103EF
:102AB00099684EF2001041F00302CEF200004FF48C
:102AC00000219A60016003B0BDE8F0858889F6189E
:102AD000C31A1FFA83FC012281F82420A1F80CC03C
:102AE0008E60E1E70123D6E72DE9F0474EF20016AC
:102AF00046F20004C4F20104CEF2000600254FF4B1
:102B00000027C6F8807082B0A560C6F88071904634
:102B100006460F469946BDF82CA0FFF7CBFE40F2C3
:102B20004471C2F2000101230B7130780A9A487196
:102B30008F81C1F81490CD83A3688A6143F00200AD
:102B4000A060487923680C9A23F00403C1F8108030
:102B5000A1F81CA08D620A6223608E60626846F252
:102B6000000312F0010FC4F20103F7D09861186856
:102B700020F004021A60586800F0010201920198E6
:102B8000002858D0B7F1010C55D070781A4618615A
:102B90005B680CF1FF3E03F00104019401980EF014
:102BA00001040123E8B1BCF1010F1AD924B1B078B6
:102BB00002230EE09C4514D9F418607801331061AB
:102BC0005068F41800F001000190019848B1607855
:102BD00001331061506800F0010001900198002855
:102BE000E8D101339F421AD84FF0000EA1F80CE053
:102BF0004A6940F24473C2F2000362B9032083F8C9
:102C000024004EF20013CEF200034FF400221A60AB
:102C100002B0BDE8F087022183F82410F1E788892B
:102C2000F618C31A1FFA83FC012281F82420A1F8A8
:102C30000CC08E60E5E70123D4E700BF08B540F281
:102C40004473C2F200031B6803B1984708BD00BF7C
:102C500046F20003C4F20103F0B55C689A68E4B27E
:102C6000144014F0020F83B020D114F0010F01D1F1
:102C700003B0F0BD40F24474C2F2000494F8241092
:102C8000022977D0052927D0012900F0C88046F213
:102C90000003C4F201039A68002022F00101996048
:102CA000FFF7FAFD002084F82400E1E740F24475C4
:102CB0001969C2F2000595F824008EB2F3B206F449
:102CC0000046052800F29481DFE810F01E0117018C
:102CD000170176013A016C016269002A00F0F58063
:102CE000616940F24473C2F20003002900F0988148
:102CF00046F20002C4F201025D691068196920F011
:102D000004031360536803F001000190019B002B42
:102D100000F09981002D00F096810B7813615068C6
:102D20006B1E00F001060196019803F001060123D5
:102D3000D0B1012D18D926B1487802230CE09D426C
:102D400012D9C85C01331061506800F00100019095
:102D5000019848B1C85C01331061506800F001006F
:102D6000019001980028EAD16269C918D31A21613B
:102D700063617DE76269002A00F04E8146F200023D
:102D8000C4F2010265691368206923F0040313602B
:102D9000536803F001030193019B002B00F0518164
:102DA000002D00F04E810378136157686B1E07F009
:102DB00001060196019E03F001070123DEB1012DFA
:102DC00019D92FB146780B4616610DE09D4212D9F4
:102DD000C15C01331161516801F001010191019958
:102DE00049B1C15C01331161516801F001010191E8
:102DF00001990029EAD1616940F244729942C2F214
:102E0000000200F2FC8046F20003C4F2010399685C
:102E100021F001009860032082F8240028E7A389AC
:102E2000002B00F0F98046F20002C4F20102A589ED
:102E30001368ADB223F0040010605368A06803F07B
:102E400001030193019B002B00F0F980002D00F09D
:102E5000F6800378136157686B1E07F00106019630
:102E6000019E03F001070B46D6B1012D18D927B1F9
:102E7000417802230CE09D4212D9C15C01331161FB
:102E8000516801F001010191019949B1C15C01331F
:102E90001161516801F00101019101990029EAD104
:102EA000A18940F244721FFA81FC9C45C2F20002E3
:102EB00000F2AB804FF0000CA2F80CC05069002863
:102EC000A9D0022382F82430D2E6A36A002B00F0B6
:102ED000B38004F11000984760616369002B7FF4B0
:102EE000FFAE46F20003C4F201039A68032122F008
:102EF0000100986084F82410F2E6002E3FF4B5AE8D
:102F00001846FFF79BFEB0E6002E3FF4AEAEF12B65
:102F1000F6D14FF00002EA83E98BAB6988B26FF01B
:102F20000E0C03F800C0E98B481C81B2E983E88BE2
:102F30001FFA80FC03F80C20042385F8243094E663
:102F4000002EDDD1B5F81EC0A9691FFA8CF00F184C
:102F500017F8012C40F24477F12AC2F2000774D02E
:102F6000F88BBA8B1FFA80FC944508D2F88B1FFAB5
:102F700080FC01F80C30F88B431C99B2F983EB8B81
:102F800040F2447599B28A42C2F200057FF46DAEF8
:102F9000B5F81EE01FFA8EF0FFF77EFC002285F8E0
:102FA000242062E6002EABD1A96902204B70FFF706
:102FB00073FC85F8246058E6002E3FF456AE95F871
:102FC00005C040F244726345C2F2000298D14FF04E
:102FD0000000D083D18B90691FFA81FC00F80C307F
:102FE000D38B0420591C8BB282F82400D3833CE697
:102FF0000020FFF751FC002085F8240035E65169D8
:10300000C018CB1A1061536132E69189C018CB1AEF
:103010009BB2906093812BE603B0BDE8F04049E499
:1030200046F20002C4F20102906820F00101032080
:10303000916083F824001BE6FFF73CFC50E6002378
:103040002EE70023D7E600238EE6F88B82B28B545E
:10305000B7F81EE01FFA8EF3C91811F8010CFFF73C
:10306000EDFD87F8246000E600B5E02883B01DD0B0
:10307000E12844D080F0800CF12814BF0023012304
:10308000BCF11F0F98BF43F0010333B9A02804D04F
:1030900000F14F01CAB2062A06D840F27072C2F29D
:1030A000000251791368984703B000BD48F200014F
:1030B00041F288330193C4F20301D1F89800019BD7
:1030C0005A1E10F4805F019202D101980028F4D1B9
:1030D00048F20002C4F20302D2F8983040F2707154
:1030E000C2F2000123F46E6C0B682CF01C00C2F8D5
:1030F0009800002BD8D04979E0209847D4E748F2CF
:10310000000141F288300190C4F20301D1F89830F7
:103110000198421E13F4805F019202D0019B002BA4
:10312000F4D140F27072C2F20002906848F20001DD
:103130001368C4F20301C1F89800002BB4D0517990
:10314000E1209847B0E700BF08B540F21003C2F293
:103150000003196848F20003C4F2030340F27072DE
:10316000D960C2F200021169D268C3F89C2009B18B
:103170004078884708BD00BF40F27073C2F2000378
:1031800000221A75D9827047F0B540F2707487B08A
:10319000C2F20004237D40F27075C2F200059C4625
:1031A000002BF7D102274FF0010E43F2791685F874
:1031B00014E0C0F20006A5F816C04FF01F0E4FF045
:1031C000200C04AD1A46394605A88DF814E08DF898
:1031D00015C0009502960197FFF786FC227D40F20C
:1031E0007073C2F20003002AF8D1D98A022902D0F2
:1031F000C82007B0F0BD9DF810301F2B08BF9DF808
:103200001100F5D1F5E700BFF0B540F2707487B05A
:10321000C2F20004237D40F27075C2F200059C46A4
:10322000002BF7D14FF0010E85F814E00227A5F826
:1032300016C043F279164FF0100CC0F200064FF0A2
:103240001F0E0DEB0C051A46394605A88DF814E043
:103250008DF815C0009502960197FFF745FC227D79
:1032600040F27073C2F20003002AF8D1D98A022911
:1032700002D0C82007B0F0BD9DF810301F2B08BF4A
:103280009DF81100F5D1F5E7F0B540F2707487B004
:10329000C2F20004237D40F27075C2F200059C4624
:1032A000002BF7D102274FF0010E43F2791685F873
:1032B00014E0C0F20006A5F816C04FF01F0E4FF044
:1032C000080C04AD1A46394605A88DF814E08DF8AF
:1032D00015C0009502960197FFF706FC227D40F28B
:1032E0007073C2F20003002AF8D1D98A022902D0F1
:1032F000C82007B0F0BD9DF810301F2B08BF9DF807
:103300001100F5D1F5E700BFF0B540F2707487B059
:10331000C2F20004237D40F27075C2F200059C46A3
:10332000002BF7D102274FF0010E43F2791685F8F2
:1033300014E0C0F20006A5F816C04FF01F0E4FF0C3
:10334000040C04AD1A46394605A88DF814E08DF832
:1033500015C0009502960197FFF7C6FB227D40F24B
:103360007073C2F20003002AF8D1D98A022902D070
:10337000C82007B0F0BD9DF810301F2B08BF9DF886
:103380001100F5D1F5E700BFF0B540F2707487B0D9
:10339000C2F20004237D40F27075C2F200059C4623
:1033A000002BF7D102264FF0010E43F2791785F872
:1033B00014E0C0F20007A5F816C04FF01F0E04ADD0
:1033C0001A46314605A88DF814E0009502978DF84D
:1033D00015600196FFF788FB227D40F27073C2F200
:1033E0000003002AF8D1D98A022902D0C82007B0E8
:1033F000F0BD9DF810C0BCF11F0F08BF9DF8110073
:10340000F4D1F4E72DE9F04140F2707486B0C2F2D5
:103410000004237D40F27075C2F200059C46002B2B
:10342000F7D102274FF01F0E43F279164FF0010833
:10343000C0F200068DF814E01A460DF1100E394660
:1034400005A885F814808DF81580CDF800E0029667
:10345000A5F816C00197FFF747FB227D40F2707375
:10346000C2F20003002AF8D1D98A022903D0C82069
:1034700006B0BDE8F0819DF810C0BCF11F0F08BF79
:103480009DF81100F3D1F3E72DE9F04140F270749B
:1034900086B08646C2F20004237D40F27075C2F207
:1034A00000059C46002BF7D102274FF0010843F29C
:1034B000791685F81480C0F20006A5F816C04FF002
:1034C000170804AD1A46394605A88DF814808DF802
:1034D00015E0009502960197FFF706FB227D40F26A
:1034E0007073C2F20003002AF8D1D98A022903D0EE
:1034F000C82006B0BDE8F0819DF810C0BCF1170FE0
:1035000008BF9DF81100F3D1F3E700BF48F20003B4
:10351000C4F20303DA682DE9F04F40F21005C2F25D
:1035200000052A60D3F89C7040F27074C2F2000467
:10353000E760D3F8986042F4FF57A660DF60D3F8E5
:103540009C200022C3F89C20D3F89C70804647F44E
:103550000076C3F89C60D3F89C008BB040F4806286
:103560008E46C3F89C20217D40F27076C2F20006A0
:103570008C460029F7D14FEA1E6305934FF0010AEC
:1035800086F814A043F27917A6F816C0634609AE70
:10359000DDF814C00A46C0F200074FEA1E294FEAC0
:1035A0001E4B4FF0140A009607A8022606218DF83C
:1035B0001CA08DF81D808DF81F908DF820B08DF81F
:1035C00021C0019602978DF81EE0FFF78DFA227D4B
:1035D00040F27073C2F20003002AF8D1B3F816E08B
:1035E000BEF1020F0FD0C8202A6848F20003C4F2CF
:1035F0000303DA60E168C3F89C10A268C3F898205E
:103600000BB0BDE8F08F9DF82410142908BF9DF879
:103610002500E8D1E8E700BFF0B540F2707487B04C
:10362000C2F20004237D40F27075C2F200051E460E
:10363000002BF7D16FF00F014FF0010C06A843F2F9
:10364000791700F8011DC0F200071A46614685F897
:1036500014C00297EE8200960196FFF745FA227D8C
:1036600040F27073C2F20003002AF8D1DB8A07B07F
:10367000F0BD00BFF0B540F2707487B08646C2F26C
:103680000004237D40F27075C2F200059C46002BB9
:10369000F7D101272F7543F27916A5F816C004ADAE
:1036A000C0F200062C2700951A46032505A8022122
:1036B0008DF814708DF815E001950296FFF714FA55
:1036C000227D40F27073C2F20003002AF8D1D98A39
:1036D000032902D0C82007B0F0BD9DF810C0BCF18E
:1036E0002C0F08BF9DF81100F4D1F4E7F0B540F2BB
:1036F000707487B0C2F20004237D40F27075C2F28C
:1037000000059C46002BF7D128214FF0010E05AF94
:1037100006A843F2791600F8011DC0F200060097D2
:103720001A460227714685F814E001970296A5F81B
:1037300016C0FFF7D9F9227D40F27073C2F2000380
:10374000002AF8D1B3F816C0BCF1020F02D0C8208D
:1037500007B0F0BD9DF81430282B08BF9DF8150068
:10376000F5D1F5E7F0B540F2707487B0C2F200040D
:10377000237D40F27075C2F200059C46002BF7D104
:1037800001272F7543F27916A5F816C005ADC0F2D2
:1037900000062D2700951A46022504A804218DF85D
:1037A00010708DF813C0019502968DF811C08DF838
:1037B00012C0FFF799F9227D40F27073C2F2000344
:1037C000002AF8D1D98A022902D0C82007B0F0BD5A
:1037D0009DF814C0BCF12D0F08BF9DF81500F4D161
:1037E000F4E700BF70B54BF2742198B06024064630
:1037F0002246C0F20001684601F0FCFC30466946F2
:1038000022466D4601F0F6FC18B070BD2DE9F0457A
:1038100040F2707483B0804616461D46C2F2000422
:10382000237D40F27077C2F200079C46002BF7D14F
:1038300043F2791E4FF0010A87F814A0C0F2000E7F
:10384000A7F816C0404632462B46CDF800E0FFF7F9
:103850004DF8227D40F27073C2F20003002AF8D1C5
:10386000B3F816C01FFA8CF18D4203D0C82003B004
:10387000BDE8F0853378434508BF7078F6D1F6E7A8
:103880002DE9F04F130E89B0060C04464FEA10687C
:10389000070A100A01930090150C8DF80E608DF840
:1038A0001650009E019D8E4694464FEA116B4FEADA
:1038B000112A4FEA1149112003A906AA06238DF8FF
:1038C0000D708DF80F808DF811A08DF812908DF885
:1038D00013B08DF815608DF817508DF80C408DF8E9
:1038E00010E08DF814C0FFF791FF09B0BDE8F08F2C
:1038F0002DE9F04F130E89B0060C04464FEA10680C
:10390000070A100A01930090150C8DF80E608DF8CF
:103910001650009E019D8E4694464FEA116B4FEA69
:10392000112A4FEA1149102003A906AA06238DF88F
:103930000D708DF80F808DF811A08DF812908DF814
:1039400013B08DF815608DF817508DF80C408DF878
:1039500010E08DF814C0FFF759FF09B0BDE8F08FF3
:1039600030B585B084464FEA106E050A040C03A9F1
:103970001D2001AA06238DF80D508DF80E408DF8FC
:103980000FE08DF80CC0FFF741FF05B030BD00BF60
:1039900030B585B084464FEA106E050A040C03A9C1
:1039A0001C2001AA06238DF80D508DF80E408DF8CD
:1039B0000FE08DF80CC0FFF729FF05B030BD00BF48
:1039C00070B586B084464FEA106E050A040C0426D2
:1039D0001A2001A904AA06238DF804608DF8065068
:1039E0008DF807408DF808E08DF805C0FFF70EFF51
:1039F00006B070BD70B586B084464FEA106E050AF9
:103A0000040C03261A2001A904AA06238DF80460D9
:103A10008DF806508DF807408DF808E08DF805C048
:103A2000FFF7F4FE06B070BD30B50C6885B08DF8B8
:103A30000C004FEA146C250A4FEA144E1B2002A911
:103A40006A4606238DF809508DF80AE08DF80BC000
:103A50008DF80840FFF7DAFE05B030BD00B587B03D
:103A60008DF80D004FF0050C1A2001A904AA0623B9
:103A70008DF804C0FFF7CAFE07B000BD2DE9F04F76
:103A8000944687B005460C469E46002A2BD001205E
:103A90008DF804004FEA1E6A4FEA1C6B4FEA1E279E
:103AA0004FEA1E484FEA1C294FEA1C461A2001A97A
:103AB00004AA06238DF806708DF807808DF808A0FB
:103AC0008DF80A908DF80B608DF80CB08DF80D50C4
:103AD0008DF80E408DF805E08DF809C0FFF796FED1
:103AE00007B0BDE8F08F02238DF80430D2E700BFA5
:103AF000F0B587B001A90F1D00253E4646F8045BCE
:103B00000637044606231A2004AA35803D70019525
:103B100004958DF80450ADF81450FFF777FE9DF82A
:103B20000D30237007B0F0BD00B583B0012302A9AA
:103B300001F8013D192001AA0223FFF767FE03B037
:103B400000BD00BF00B583B0002302A901F8013D0C
:103B5000192001AA0223FFF759FE03B000BD00BFE0
:103B600030B585B084464FEA106E050A040C8DF816
:103B700004108DF805202B20694602AA06238DF833
:103B800001508DF802408DF803E08DF800C0FFF77A
:103B90003DFE05B030BD00BF2DE9F04F87B09DF868
:103BA00040909DF844B086468C46050E4FEA116A57
:103BB000070A060C4FEA11280C0C8DF80C208DF822
:103BC0000D302A2001A904AA06238DF805708DF86E
:103BD00006608DF807508DF809808DF80A408DF841
:103BE0000BA08DF80E908DF80FB08DF804E08DF8D5
:103BF00008C0FFF70BFE07B0BDE8F08F2DE9F041DC
:103C00000C0A84B084468E46050E070A060C06236D
:103C10008DF8054090462920694602AA4FF0FF34EE
:103C20008DF801708DF802608DF803508DF8064014
:103C30008DF800C08DF804E0FFF7E8FD034618B9E1
:103C40009DF8062088F80020184604B0BDE8F081F1
:103C500030B589B06C4603464FEA106C4FEA104EFF
:103C60008DF80410050A1146601D10228DF80030F1
:103C70008DF801508DF802E08DF803C001F0BAFA1A
:103C800069460E2006AA0623FFF7C0FD09B030BD25
:103C9000F0B591B001AC0E4617460146202205460C
:103CA000204601F0A7FA3946102204F121008DF8D0
:103CB000246001F09FFA092021460EAA0623FFF78F
:103CC000A5FD064620B928462146202201F092FA99
:103CD000304611B0F0BD00BF2DE9F04F95B003AFF5
:103CE0001C460D46164601462022384601F082FA4F
:103CF0004FEA14682B0E0093CDF804804FEA164E5D
:103D00004FEA144C8DF82EE08DF836C0DDF800E057
:103D1000DDF804C04FEA166B39464FEA1528370A1A
:103D20004FEA154A4FEA14290C2012AA06238DF8EF
:103D30002D708DF82FB08DF831808DF832A08DF870
:103D400033E08DF835908DF837C08DF82C608DF804
:103D500030508DF83440FFF759FD15B0BDE8F08FB5
:103D60002DE9F04F844689B0030E000A0E0C019332
:103D700000904FEA1C458DF80E608DF81650009E9D
:103D8000019D0C4696464FEA11684FEA126B0F0AE6
:103D90004FEA122A4FEA12490A2003A906AA06236B
:103DA0008DF80D708DF80F808DF811A08DF81290A0
:103DB0008DF813B08DF815608DF817508DF80C4004
:103DC0008DF810E08DF814C0FFF720FD09B0BDE8B4
:103DD000F08F00BF2DE9F04F95B003AE174688462F
:103DE0002022014630461E9D1F9C019301F002FADD
:103DF0004146102206F1200001F0FCF94FEA172E8F
:103E00008DF83DE0DDF804E006204FEA15694FEA41
:103E1000146B31464FEA154C2E0A4FEA14284FEA2C
:103E2000144A8DF83EE012AA4FF0000E03468DF8BA
:103E30003FE08DF841608DF842C08DF843908DF8D9
:103E400045808DF846A08DF847B08DF83C708DF810
:103E500040508DF84440FFF7D9FC15B0BDE8F08F15
:103E60002DE9F04F91B0102703AE1A9D90468A4677
:103E70003A46014630461B9C019301F0BBF9F0190C
:103E800051463A4601F0B6F925FA07FC4FEA182EDA
:103E90008DF82DE0DDF804E04FEA15694FEA146B68
:103EA0003146270A2E0A4FEA144A8DF82EE00320E5
:103EB0004FF0000E0EAA06238DF82FE08DF831602A
:103EC0008DF832C08DF833908DF835708DF836A0AE
:103ED0008DF837B08DF82C808DF830508DF8344047
:103EE000FFF794FC11B0BDE8F08F00BF00B583B0C0
:103EF00001466A461E200623FFF788FC03B000BD7A
:103F000000B583B001466A4600200623FFF77EFC19
:103F100003B000BD00B583B001466A460520062304
:103F2000FFF774FC03B000BD00B583B001466A46DC
:103F300004200623FFF76AFC03B000BD00B583B080
:103F400001466A4601200623FFF760FC03B000BD6E
:103F50002DE9F04548F20004C4F20304E66840F29B
:103F60001005C2F200052E60D4F89CC040F27073B8
:103F7000C2F2000346F4FF56C3F80CC085B0E660F9
:103F8000074688469646187690B10021D4F89C20C2
:103F9000C4F89C10D4F89C0040F40076C4F89C60EF
:103FA000D4F89C20012042F48061C4F89C10287150
:103FB0001D7D40F27074C2F20004AC46002DF7D1B2
:103FC00002214FF0010A44F2B90643F2491584F880
:103FD00014A0C4F810E0A4F816C0C4F81C80C0F205
:103FE0000006C0F200054FF0150A04F1200203A8F4
:103FF0000B468DF80CA08DF80D7000960195FEF71C
:10400000D1FC05B0BDE8F0852DE9F0414BF2D4219B
:10401000804640F2D070C2F20000C0F2000186B0CB
:10402000FDF70CFA48F20003C4F20303D3F898102A
:1040300040F27074C2F20004A160D3F8880040F02E
:104040000602C3F88820267D40F27075C2F2000592
:10405000B446002EF7D1324643F2791702264FF0CC
:10406000010E85F814E0C0F20007A5F816C031462D
:1040700004AD05A863468DF81580009502978DF86C
:1040800014600196FEF730FD227D40F27073C2F29B
:104090000003002AF8D1B3F816C0BCF1020F03D018
:1040A000C82006B0BDE8F0819DF81030022B08BF93
:1040B0009DF81100F4D1F4E730B540F27074C2F20B
:1040C000000440F21003C2F2000394F818C01D79F6
:1040D000BCF1000118BF012183B00022012D14BFE3
:1040E000002101F001018DF8062005468DF807201A
:1040F00000294BD048F2000041F288310091C4F20F
:104100000300D0F898200099013912F4805F0091E3
:1041100002D1009A002AF4D1002048F2000218715E
:10412000C4F20302D2F8983040F2D07023F46E6EDD
:104130002EF01C01C2F89810C2F2000003224FF4C6
:10414000E131FEF743FB40F2D0704BF2F421C0F2B4
:104150000001C2F20000FDF771F9052000F0BEFD7C
:1041600000F03CFC0DF107000DF1060100F096FC9B
:104170009DF80730EF2B0FD040F2D0704BF2343166
:10418000C2F20000C0F20001FDF758F9E3699BB1EB
:104190002846984703B030BD9DF806C0BCF1400FDB
:1041A000EAD140F2D0704BF24431C2F20000C0F2CA
:1041B0000001FDF743F9E9E71846EBE740F27073B9
:1041C000C2F20003002148F20002D982C4F20302C5
:1041D00019751860D2F8982043F26900C0F2000007
:1041E000191D9A60FEF722BB40F6CC03C2F2000311
:1041F000984248F20003C4F20303996C4EF2001295
:104200002BD041F480619964CEF200020821C2F8FB
:104210008011996C41F2000221F480619964C4F22A
:1042200001021368026023F000410323116003714F
:1042300000234FF0FF328266C361036743678367E1
:104240008360C360036143618361026382630264CC
:104250008264026582650266704741F40071996468
:10426000CEF200020421C2F88011996C41F20002E2
:1042700021F400719964C4F200021168026021F017
:104280000043022113600171D2E700BF026840F6CB
:10429000CC0370B4C2F2000315689469516848F207
:1042A00000029842C4F20302966C4EF2001325D02D
:1042B00046F480669664CEF200030826C3F8806157
:1042C000966C41F2000326F48066C4F20103966402
:1042D0001A684FF0030C22F0004280F804C01A6004
:1042E0000360186820F001021A601D609C6159602B
:1042F000196841F00100186070BC704746F4007600
:104300009664CEF200030426C3F88061966C41F2F5
:10431000000326F40076C4F2000396641A684FF096
:10432000020C22F0004280F804C01A600360D8E753
:10433000006810B4046840F2FF0C24F0020404602A
:104340000468CFF6007C24F001040460046824F0C3
:10435000407424F0C00444F000540C4304608261B3
:10436000016801EA0C0C4CF4807202604360016841
:1043700041F00103036010BC704700BF30B4046813
:104380009DF808C02568072925F0010525602568E6
:1043900045F002052560256845F0010525600DD82A
:1043A00040F202140631C2F2000400EBC10542EAF9
:1043B00004046B7140F8314085F804C030BC70478C
:1043C00038B5036804469A680D4612F0040F02D00F
:1043D000FFF75CFF2368012212FA05F01968063521
:1043E00021F00101196054F8351004EBC50419607F
:1043F0006179996121795960196841F00101196069
:10440000D9690843D86138BD38B5036804469A684D
:104410000D4612F0040F02D0FFF738FF2368012188
:1044200011FA05F5D86920EA0505DD6138BD00BF40
:10443000036882B09A6812F0020F07D018690190E1
:10444000019A0192986810F0020FF7D159619968AA
:1044500011F0010FFBD09A6812F0020FFBD018691F
:1044600002B070472DE9F04782B0BDF828401646EB
:10447000A518ADB2074688469946002D65D13B6820
:104480004FF4807A9A6812F0040F65D1186840F2F0
:10449000FF0220F0010119601868CFF6007200EAEF
:1044A000020C4AEA0C010820196058601A6842F0B0
:1044B00001011960986810F0400F05D11969019148
:1044C0009A6812F0400FF9D0002E3AD098F8000008
:1044D0005861002D32D0012100208C460246D3F8CD
:1044E00008A01AF0400F11D1D3F810A09642CDF8D1
:1044F00004A007D8844282BF019B09F800303B68C2
:10450000013080B20132013992B289B2D3F808A0E9
:104510001AF4807A10D103290ED8664588BF18F89E
:104520000CA001D8654507D90CF1010C0131C3F885
:1045300014A01FFA8CFC89B2AA42D0D302B0BDE805
:10454000F087002DFAD05E61C5E73B684FEA052A87
:104550009A6812F0040F99D03846FFF797FE3B682F
:1045600094E700BF036810B49A68002412F4806FC7
:1045700018BFDA6A90F804C01CBF42F00102DA6288
:10458000846701670CF01F02012090401C684FFAFD
:104590008CF14EF2001244F010044909CEF20002F0
:1045A0001C6042F8210010BC704700BF0379F0B4D2
:1045B0004FF0010C03F01F040CFA04F2002504680C
:1045C0000561C5604167E76A5BB227F00106E662F4
:1045D000E76A4EF2001647F00807E762616121685A
:1045E0005B0941F02001CEF200062160856046F8AB
:1045F0002320F0BC704700BFF0B4049F046800257E
:1046000087620561C562C260266840F2FF0726F036
:10461000010626602668CFF6007706EA070C4CF400
:1046200080570826276066602768436247F00106C6
:104630002660A668059F16F4807F876705678160FE
:104640000DD1036908E0CD5C656103690133036145
:10465000A56815F4807F02D1C5689D42F3D8236810
:1046600043F010012160C2B9E36A43F00101E16245
:1046700090F804C001210CF01F039940A06A4FFA82
:104680008CF24EF2001340F020005209CEF20003EB
:10469000A06243F82210F0BC7047E26A22F00103E6
:1046A000E362216841F020022260E1E703680162D1
:1046B0005A639A6A42F010029A62704782610368F4
:1046C0000022C2619A68416112F4807F1AD10269A6
:1046D000C1688A420AD281688A5C5A6101694A1CAF
:1046E00002619A6812F4807FF1D07047C2698169D3
:1046F0008A4206D241698A5C5A61C1694A1CC26118
:10470000EFE79B68704700BF0368186840F001023C
:104710001A6070470368186820F001021A60704739
:10472000036840F2FF021868CFF6007200EA020C3C
:104730004CEA0120082218605A60704703689868A4
:1047400000F00100704700BF036F10B5044673B15D
:104750000268916811F0400F01D007E0236F1069E3
:1047600098472268936813F0400FF7D010BD026895
:10477000906810F0400FF9D1E36AA16A8B4203D32D
:10478000F4E7A06A9842F1D91169626AD154E36AE8
:1047900022680133E362906810F0400FF1D0E5E742
:1047A000036810B5196A044611F0020F1A4646D183
:1047B000186A10F0010F05D0A168002952D001201D
:1047C000D8601A461B6A13F0100F3FD1106A10F020
:1047D000200F00D110BD2046FFF7B6FF2268002150
:1047E0002161D06AE16A40F00803D362936813F450
:1047F000807F0DD12369E068834213D2A068C35C37
:1048000053612069431C2361936813F4807FF1D0C6
:10481000A36F0020E06213B1606A984722682021EC
:10482000D16010BDE369A069834206D26069C35CB0
:104830005361E069431CE361D8E79368E8E7FFF759
:1048400083FF23680222DA601A46B1E72046FFF7A9
:104850007BFF236A13B1606AE16A984722681021DE
:10486000D160B3E7626F5A61A9E700BF684620F0E4
:1048700007018D4601B540F6CC00C2F20000FFF7FB
:104880008FFFBDE801408546704700BF684620F0B5
:1048900007018D4601B540F65000C2F20000FFF757
:1048A0007FFFBDE801408546704700BF10B584B06A
:1048B00004A90523012440F6CC0001F8023DC2F210
:1048C000000022460DF10F030094FFF7CBFD9DF889
:1048D0000F0004B010BD00BF70B584B004AD052357
:1048E00005F8023D0DF10F06012440F6CC00C2F29E
:1048F00000002946224633460094FFF7B3FD9DF899
:104900000F1001F001008DF80F000028EDD104B068
:1049100070BD00BFF0B585B004AE062540F6CC04EE
:10492000C2F2000406F8045D002507462946204629
:10493000FFF746FDFFF7D0FF2046314601222B4608
:104940000095FFF78FFD3A0C3B0A20218DF80C10E3
:104950008DF80D208DF80E308DF80F70FFF7BCFF2D
:104960003146204604222B460095FFF77BFDFFF7DA
:10497000B3FF20462946FFF747FD05B0F0BD00BF55
:1049800070B540F6CC0484B00025C2F2000404AE39
:10499000062006F8010D29462046FFF711FDFFF716
:1049A0009BFF2046314601222B460095FFF75AFD1A
:1049B0006FF038038DF80F30FFF78EFF3146204639
:1049C00001222B460095FFF74DFDFFF785FF20469E
:1049D0002946FFF719FD04B070BD00BF70B540F661
:1049E000CC0584B00024C2F2000504AE062006F80F
:1049F000040D21462846FFF7E3FCFFF76DFF28462C
:104A00003146012223460094FFF72CFD01238DF847
:104A10000C308DF80D40FFF75FFF3146284602222B
:104A200023460094FFF71EFDFFF756FF2846214658
:104A3000FFF7EAFC04B070BDF0B540F6CC04844644
:104A40000025C2F2000485B04FEA1C234FF00B0E84
:104A500020460F46164629464FEA1C428DF808E0CC
:104A60008DF80BC08DF809208DF80A308DF80C50A8
:104A70008DF80D50B6B2FFF7A3FCFFF72DFF2046CF
:104A800002A93B4606220096FFF7ECFCFFF724FF45
:104A900020462946FFF7B8FC05B0F0BDF0B540F65A
:104AA000CC0485B0C2F2000404AF6FF0600507F8D3
:104AB000015D06460D4620460021FFF781FC394680
:104AC000012203AB204602270097FFF7CBFC2046CC
:104AD0000021FFF799FC9DF80C209DF80D303270F5
:104AE0002B7005B0F0BD00BFF0B5ADF5057D0446F7
:104AF000BDF828521046EAB1571E91F800C00122B5
:104B000003AE1740824286F800C013DA37B191F83D
:104B100001E00222824286F801E00BDA8F5C02F1AA
:104B2000010C11F80CE0B7540CF10102824206F8B6
:104B30000CE0F3DB05B31E7803A96A1E091801F81F
:104B4000016B02F001060122954215DD36B193F8A2
:104B500001C00222954201F801CB0DDD13F802E0FD
:104B60000E4606F801EB013213F802C0013281F85B
:104B700001C0711C9542F1DC2B18002540F6CC00D9
:104B80009AB2C2F200002B4603A90095FFF76AFC17
:104B90002046FFF7D3FD0028FAD00DF5057DF0BDC6
:104BA0002DE9F04F044685B040F6CC0004AFC2F2C8
:104BB000000006268B4600219046FFF701FC07F80F
:104BC000046D0025FFF788FE40F6CC00C2F200001D
:104BD000394601222B460095FFF744FC220C230A9C
:104BE00039218DF80C108DF80D208DF80E308DF8D0
:104BF0000F40FFF771FE40F6CC00C2F200003946CC
:104C000004222B460095FFF72DFC8DF80C60FFF772
:104C100063FE40F6CC00C2F20000394601222B466A
:104C20000095FFF71FFCB8F1000F3CD0A94604F037
:104C3000FF06C5EB0800C6F58076864228BF06460B
:104C4000FFF74AFE40F6CC000122C2F200003946CE
:104C50004B464FF0060A8DF80CA0CDF80090FFF7F8
:104C600001FCFFF739FE1FFA86FC40F6CC004FEA44
:104C7000144E4FEA142A0BEB05030422CDF800C0B2
:104C8000C2F200004FF0020CAD1939468DF80F400A
:104C90008DF80DE08DF80EA08DF80CC0A419FFF76B
:104CA00023FFA845C3D804248DF80C40FFF714FE59
:104CB000002440F6CC003946C2F20000012223460F
:104CC0000094FFF7CFFB40F6CC00C2F20000214673
:104CD000FFF79AFB05B0BDE8F08F00BF30B540F696
:104CE000CC04C2F2000483B005462046FFF77CFAEC
:104CF00020462B46082400214FF040720094FFF715
:104D00003DFB03B030BD00BF30B448F20003C4F235
:104D10000303D3F8982082B012F0806F2FD1D3F81C
:104D2000980010F4805F4AD04BF26031EC46C0F23C
:104D3000000103C98CE80300D3F89C2002A9C2F348
:104D400082100A1812F808CCBCF1010F62D056D2BA
:104D5000D3F8503147F640004FF2800213F0040FB1
:104D6000C0F27D10C0F2FA2240F2180340F60011A2
:104D700008BF0246C2F20003C0F23D0115E0D3F8BD
:104D8000501147F6400C4FF2800211F0040FC0F2B0
:104D90007D1CC0F2FA2240F2180340F6001108BF51
:104DA0006246C2F20003C0F23D019A61D9601A6006
:104DB0005A609A601A615A6102B030BC704740F282
:104DC000180346F600014BF2004240F6001445F687
:104DD00000204DF20005C2F20003C0F68911C0F2B6
:104DE000C442C0F23D04C0F26220C1F212359D619E
:104DF0009A60DC601861596119605A60DCE740F222
:104E0000180344F2402240F60011C2F20003C0F23F
:104E10000F02C8E740F2180340F60011C2F2000387
:104E2000C0F23D014FF40042BFE700BF10B440F2B2
:104E3000180346F600014BF2004240F6001445F616
:104E400000204DF2000CC2F20003C0F68911C0F23E
:104E5000C442C0F23D04C0F26220C1F2123CC3F869
:104E600018C09A60DC601861596119605A6010BC02
:104E7000704700BF48F2000300202DE9F00FC4F294
:104E8000030301241C6618634FF48C730861C1F896
:104E90008430C1238B6140F69F13CB6143F23333DF
:104EA0004B624FF6FF738B624FF44C538B6747F2A4
:104EB0007773CB6240F6FF730B634FF468538B60DC
:104EC00043F600124FF44363CB60C0F201024FF08F
:104ED000080A47F25D538A63C1F83CA04FF4C05200
:104EE000CB6602230A654FF0030BCB6540F6E45214
:104EF00023230A664FF03309C1F8BCB020224B656A
:104F00004FF48043C1F840904A64C1F8809040F269
:104F10000712C1F87CA0C1F89C304FF46973C1F846
:104F2000B40048F2F8084A664FF0070C8B6511226E
:104F30004FF400738A66C1F8A0808022C1F8A4C033
:104F4000C1F8A880C1F8ACC0C1F8B0300F23C1F8D7
:104F50001C024027C1F8242240F20146C1F8303239
:104F600044F210050B220923C1F84822C1F85C0263
:104F7000C1F86002C1F86402C1F86802C1F8804259
:104F8000C1F89872C1F89C62C1F8A052C1F8D872F9
:104F9000C1F8DC62C1F8E052C1F8FC02C1F804B308
:104FA000C1F80843C1F80C43C1F81433C1F8380202
:104FB000C1F83C02C1F81C430C60BDE8F00F70471B
:104FC000F0B44BF2641148F20007C4F203074FF04B
:104FD000000CC0F20001C7F848C040F2180346F6C2
:104FE00000044BF2004240F6001645F600254BF255
:104FF000681009684DF2000CC2F20003C0F6891473
:10500000C0F2C442C0F23D06C0F26225C1F2123CB9
:10501000C0F20000C3F818C09A60DE601D615C61D8
:105020001C605A60F0BC25E710B548F20001C4F2DC
:105030000301D1F8502148F2000312F0010FC4F22D
:105040000303F6D0D3F89420194622F00100C3F8E8
:105050009400D1F8500148F2000310F0020FC4F29E
:105060000303F6D0D3F8981021F48052C3F89820A7
:10507000986C20F480319964D3F84C11D3F89820BF
:1050800042F48070C3F89800D3F8981021F0806241
:10509000C3F898204EF60053CEF2000358694BF245
:1050A000641240F40071C0F200024BF268105961C2
:1050B000C0F200001168FFF7DDFEBDE81040FBF70D
:1050C000F6B800BF4FF0FF30704700BFFEE700BFEB
:1050D0004FF400534B600020704700BF0120704721
:1050E00001207047002070474FF0FF30704700BF2D
:1050F000002070470020704740F29472C2F2000214
:10510000136840F65011C2F20001002B08BF0B4695
:10511000EFF3088C19188C4500D2FEE71160184691
:10512000704700BF4FF400534B600020704700BF32
:105130004FF0FF30704700BF08B500F02DF80A238C
:1051400003604FF0FF3008BD08B500F025F80223DA
:1051500003604FF0FF3008BD08B500F01DF81F23B5
:1051600003604FF0FF3008BD08B500F015F81623B6
:1051700003604FF0FF3008BD08B500F00DF80B23B9
:1051800003604FF0FF3008BD08B500F005F80C23B0
:1051900003604FF0FF3008BD40F23403C2F2000359
:1051A0001868704770B54BF260564BF26055C0F20C
:1051B0000006C0F20005761BB61006D0002455F894
:1051C000243001349847A642F9D84BF260554BF28F
:1051D0006456C0F20005C0F20006761B06F0B4F972
:1051E000B61006D0002455F8243001349847A64262
:1051F000F9D870BD032A2DE9F0070BD83AB1002386
:1052000011F803C000F803C001339342F8D1BDE8A0
:10521000F007704782180C46034603E014F8011C9F
:1052200003F8011C03F003061946A44601330134B8
:10523000002EF3D11CF00304634608BFC1EB020C3F
:1052400068D06542C4F1040A0CEB050733464FEA07
:10525000CA0A5CF805604FEAC408551A08E057F816
:10526000044F264604FA0AF449EA0404CC500433F5
:105270005C18032D26FA08F9A5F104050CEB0306CA
:10528000EDDC002302E0F15CE15401331919914295
:10529000F9D3BCE753F8404C41F8404C53F83C4C30
:1052A00041F83C4C53F8384C41F8384C53F8344CE6
:1052B00041F8344C53F8304C41F8304C53F82C4CF6
:1052C00041F82C4C53F8284C41F8284C53F8244C06
:1052D00041F8244C53F8204C41F8204C53F81C4C16
:1052E00041F81C4C53F8184C41F8184C53F8144C26
:1052F00041F8144C53F8104C41F8104C53F80C4C36
:1053000041F80C4C53F8084C41F8084C53F8044C45
:1053100041F8044C1C460D4640334031BCF13F0F70
:10532000ACF1400CB6DC21462B46541B0FE051F883
:10533000105C43F8105C51F80C5C43F80C5C51F8BD
:10534000085C43F8085C51F8045C43F8045C0F2CDB
:105350000D469C4601F1100103F11003A4F1100465
:10536000E5DCCCEB0201002303E0EC584CF80340F1
:1053700004335E19032903EB0C04A1F10401F4DCEE
:105380007FE700BF0CB440F23403F0B5C2F2000373
:105390000C1E9DB005461E6828DB23AF229A3B46B3
:1053A000304601A90CBFA44604F1FF3C4FF4027E35
:1053B0000595ADF810E04FF0FF3ECDF818C001950F
:1053C000ADF812E0CDF80CC01B9700F0D7F8B0F1A3
:1053D000FF3F08DB14B1019B00221A701DB0BDE82D
:1053E000F04002B070478B233360F3E78B234FF01C
:1053F000FF303360F2E700BF08B4F0B5141E9CB074
:1054000006460D4627DB22AF219A3B4601A90CBF79
:10541000A44604F1FF3C4FF4027E0595ADF810E080
:105420004FF0FF3ECDF818C00195ADF812E0CDF871
:105430000CC01B9700F0A2F8B0F1FF3F08DB14B1DD
:10544000019B00221A701CB0BDE8F04001B070470B
:105450008B233360F3E78B2303604FF0FF30F2E7D9
:105460002DE9F04F85B092460C460390906817687E
:10547000002800F081804FF000090B684D46002D98
:1054800054D0A668B542B0463EBF18462E46A84640
:105490003CD3A08910F4906F08BF184636D06269DB
:1054A000216902EB420B5B1A03F1010C0BEBDB7B76
:1054B000AC444FEA6B0BE3455A463CBFE3465A46C1
:1054C00010F4806F37D011460398019302F0F6FB79
:1054D000019B00283BD01A46216901930290FFF7F7
:1054E00089FEA289019BDDF808C022F4906242F097
:1054F0008002A2812E46A846C3EB0B020CEB0300F0
:10550000A260C4F810C02060C4F814B042464946F6
:1055100002F0E0FEA2682368961BA660DAF8082075
:1055200043442360551BCAF80850FDB1D7F80090DA
:105530007D680837A3E70398019303F0D7FB019B2D
:1055400084460028D6D10398216902F08DFA039A87
:105550000C234FF0FF3013600023A289CAF80430F7
:1055600042F04002CAF80830A28102E02846CAF898
:10557000045005B0BDE8F08F5060FAE72DE9F04F18
:10558000C5B00E469A461546099002F053FBB38902
:1055900013F0800F00681B9003D03369002B01F0DB
:1055A0008C800DF17409B3464C4600221092002302
:1055B000189217921A920D922DAA199328320DF172
:1055C000F703169207930023CDF8DC9038933993B4
:1055D0002B78B3F1250218BF0122002B0CBF00224B
:1055E00002F0010202B32E4616F8013F1A1E18BF40
:1055F0000122252B0CBF002202F00102002AF3D168
:10560000771B08BF35460FD06760389B399A013346
:105610002560D219072B3992389379DC08340D981C
:105620003546C0190D903378002B00F037870021E4
:105630004FF00002CDF828A06B1C0C914FF0FF3802
:105640008DF80F218A466A782B204FF0200C5D1CC4
:10565000A2F12003582B00F21982DFE813F029028F
:105660001702170235021702170217021702170254
:1056700017023C0248021702C802CF021702EF02CB
:10568000F602F602F602F602F602F602F602F6025A
:10569000F602170217021702170217021702170263
:1056A0001702170217024F02880217028802170218
:1056B000170217021702C10217021702EE031702A0
:1056C0001702170217021702930317021702AD03FE
:1056D0001702170217021702170217021702170202
:1056E00017021702C703D8038802880288020B0337
:1056F000D803170217020F031702190329033E03E9
:105700008C03170259031702840317021702EA00D9
:105710000998594637AAFFF7A3FE00287CD14C46CA
:105720007DE71899012940F35284119A012363609F
:10573000389B2260399A013338930132072B399212
:1057400000F39685083401236360389B399A01334E
:105750001B980132072B39922060389300F37D8526
:105760000834109800220023199904F0E3FB002864
:1057700040F003851899119B4A1E6260591C389BA2
:1057800021603999013338938A18072B399200F335
:105790002F8408341A9A1A9862603EAA389B2260B5
:1057A000399A013338931218072B399200F34F813D
:1057B00004F108031AF0040F00F056810C990B9ABB
:1057C0008E1A002E40F35081102E4BF26C37D8BF4A
:1057D000C0F2000740F3DE831024C0F200070DF191
:1057E000DC08DDF824A003E0103E102E40F3D28345
:1057F0005C60389A399901321F601031072A39915B
:1058000003F108033892EFDD504659464246FFF750
:1058100027FE4B460028E7D05E46B3890D9813F06B
:10582000400F18BF4FF0FF300D900D9845B0BDE808
:10583000F08F1AF0200F4BF2B030C0F2000014923B
:10584000179000F0C3820A99CB1D23F0070303F1E0
:1058500008020A92D3E9006756EA07010CBF00224A
:1058600001221AEA020F40F0BC8402234FF000012B
:105870008DF80F11B8F1000FA8BF2AF0800AB8F117
:10588000000F18BF42F00102002A00F06081012BD6
:1058900000F03484022B00F017841699CDF82C8088
:1058A00011914FEAD6084FEAD70C48EA477806F03C
:1058B000070067464646303056EA070201F8010DF8
:1058C000EFD11AF0010FDDF82C80119140F0DB844C
:1058D000169B5B1A0E930E9BCDF854804345B8BFC0
:1058E00043460B939DF80F3113B10B9901310B9186
:1058F0001AF00202139202D00B9B02330B931AF0A0
:105900008400129038D10C990B9A8E1A002E33DD38
:10591000102E4BF26C37D8BFC0F2000720DD4FF0DD
:105920001008C0F2000702E0103E102E18DDC4F887
:105930000480389B399A013327601032072B399243
:1059400004F108043893EFDD0998594637AA4C460C
:10595000FFF786FD00287FF45FAF103E102EE6DCD7
:105960006660389B27605A1C399B38929B19072A1E
:10597000399300F3F78308349DF80F3173B1012395
:105980006360389B43AA03322260399A013338930B
:105990000132072B399200F340830834139B6BB11B
:1059A00002236360389B43AA2260399A01333893FB
:1059B0000232072B399200F33A8308341298802878
:1059C00000F0B28215980E9BC61A002E2EDD102E06
:1059D000A74FC8BF4FF0100803DC1BE0103E102E8D
:1059E00018DDC4F80480389B399A013327601032DF
:1059F000072B399204F108043893EFDD09985946D2
:105A000037AA4C46FFF72CFD00287FF405AF103E67
:105A1000102EE6DC6660389B27605A1C399B389252
:105A20009B19072A399300F3EE8208341AF4807F19
:105A300040F019820E99119A6160389B2260399A60
:105A4000013338935218072B39927FF7B1AE09987A
:105A5000594637AAFFF704FD00287FF4DDAE1AF09F
:105A6000040F4B467FF4AAAE399B0D980B9A0C9904
:105A70008A42ACBF801840180D90002B40F09E82E7
:105A80000023DDF828A038934C46A1E51492002AA3
:105A900000F0048501208DF8B4204FF000012DAAFC
:105AA0000B908DF80F1111920E90002115911FE7A8
:105AB0009DF80F31002B40F00C840A992B468DF88D
:105AC0000FC12A780A91C2E50A994AF0010A2A7898
:105AD0002B460A91BBE50A9B0A9A1B68111D002BF5
